{
  "contractName": "AdminMultisig",
  "abi": [
    {
      "inputs": [
        {
          "internalType": "address[]",
          "name": "_signers",
          "type": "address[]"
        },
        {
          "internalType": "uint32",
          "name": "_limit",
          "type": "uint32"
        },
        {
          "internalType": "uint32",
          "name": "_restriction",
          "type": "uint32"
        }
      ],
      "stateMutability": "nonpayable",
      "type": "constructor"
    },
    {
      "anonymous": false,
      "inputs": [
        {
          "indexed": false,
          "internalType": "bytes32",
          "name": "proposalId",
          "type": "bytes32"
        }
      ],
      "name": "acceptProposal",
      "type": "event"
    },
    {
      "anonymous": false,
      "inputs": [
        {
          "indexed": false,
          "internalType": "bytes32",
          "name": "proposalId",
          "type": "bytes32"
        }
      ],
      "name": "addProposal",
      "type": "event"
    },
    {
      "inputs": [
        {
          "internalType": "uint256",
          "name": "",
          "type": "uint256"
        }
      ],
      "name": "allProposals",
      "outputs": [
        {
          "internalType": "bytes32",
          "name": "",
          "type": "bytes32"
        }
      ],
      "stateMutability": "view",
      "type": "function",
      "constant": true
    },
    {
      "inputs": [
        {
          "internalType": "bytes32",
          "name": "",
          "type": "bytes32"
        }
      ],
      "name": "authOps",
      "outputs": [
        {
          "internalType": "bool",
          "name": "",
          "type": "bool"
        }
      ],
      "stateMutability": "view",
      "type": "function",
      "constant": true
    },
    {
      "inputs": [],
      "name": "limit",
      "outputs": [
        {
          "internalType": "uint32",
          "name": "",
          "type": "uint32"
        }
      ],
      "stateMutability": "view",
      "type": "function",
      "constant": true
    },
    {
      "inputs": [],
      "name": "openProposals",
      "outputs": [
        {
          "internalType": "uint32",
          "name": "",
          "type": "uint32"
        }
      ],
      "stateMutability": "view",
      "type": "function",
      "constant": true
    },
    {
      "inputs": [
        {
          "internalType": "bytes32",
          "name": "",
          "type": "bytes32"
        }
      ],
      "name": "proposals",
      "outputs": [
        {
          "internalType": "bytes32",
          "name": "proposalId",
          "type": "bytes32"
        },
        {
          "internalType": "address",
          "name": "f",
          "type": "address"
        },
        {
          "internalType": "uint256",
          "name": "amount",
          "type": "uint256"
        },
        {
          "internalType": "address",
          "name": "t",
          "type": "address"
        },
        {
          "internalType": "bool",
          "name": "state",
          "type": "bool"
        },
        {
          "internalType": "bytes32",
          "name": "operation",
          "type": "bytes32"
        },
        {
          "internalType": "address",
          "name": "contractAddr",
          "type": "address"
        },
        {
          "internalType": "bool",
          "name": "status",
          "type": "bool"
        }
      ],
      "stateMutability": "view",
      "type": "function",
      "constant": true
    },
    {
      "inputs": [],
      "name": "restriction",
      "outputs": [
        {
          "internalType": "uint32",
          "name": "",
          "type": "uint32"
        }
      ],
      "stateMutability": "view",
      "type": "function",
      "constant": true
    },
    {
      "inputs": [
        {
          "internalType": "address",
          "name": "",
          "type": "address"
        }
      ],
      "name": "signers",
      "outputs": [
        {
          "internalType": "bool",
          "name": "",
          "type": "bool"
        }
      ],
      "stateMutability": "view",
      "type": "function",
      "constant": true
    },
    {
      "inputs": [
        {
          "internalType": "bytes32",
          "name": "_operation",
          "type": "bytes32"
        },
        {
          "internalType": "bytes32",
          "name": "_proposalId",
          "type": "bytes32"
        },
        {
          "internalType": "address",
          "name": "_to",
          "type": "address"
        },
        {
          "internalType": "bool",
          "name": "_state",
          "type": "bool"
        },
        {
          "internalType": "address",
          "name": "_contractAddress",
          "type": "address"
        }
      ],
      "name": "createAddressProposal",
      "outputs": [],
      "stateMutability": "nonpayable",
      "type": "function"
    },
    {
      "inputs": [
        {
          "internalType": "bytes32",
          "name": "_proposalId",
          "type": "bytes32"
        },
        {
          "internalType": "address",
          "name": "_to",
          "type": "address"
        },
        {
          "internalType": "bool",
          "name": "_state",
          "type": "bool"
        },
        {
          "internalType": "address",
          "name": "_contractAddress",
          "type": "address"
        }
      ],
      "name": "createPauseProposal",
      "outputs": [],
      "stateMutability": "nonpayable",
      "type": "function"
    },
    {
      "inputs": [
        {
          "internalType": "bytes32",
          "name": "_proposalId",
          "type": "bytes32"
        },
        {
          "internalType": "uint256",
          "name": "_amount",
          "type": "uint256"
        },
        {
          "internalType": "address",
          "name": "_to",
          "type": "address"
        },
        {
          "internalType": "address",
          "name": "_from",
          "type": "address"
        },
        {
          "internalType": "bool",
          "name": "_state",
          "type": "bool"
        },
        {
          "internalType": "address",
          "name": "_contractAddress",
          "type": "address"
        }
      ],
      "name": "createTransferProposal",
      "outputs": [],
      "stateMutability": "nonpayable",
      "type": "function"
    },
    {
      "inputs": [],
      "name": "getAllProposalsId",
      "outputs": [
        {
          "internalType": "bytes32[]",
          "name": "",
          "type": "bytes32[]"
        }
      ],
      "stateMutability": "view",
      "type": "function",
      "constant": true
    },
    {
      "inputs": [
        {
          "internalType": "bytes32",
          "name": "index",
          "type": "bytes32"
        }
      ],
      "name": "getProposalById",
      "outputs": [
        {
          "internalType": "bytes32",
          "name": "",
          "type": "bytes32"
        },
        {
          "internalType": "address",
          "name": "",
          "type": "address"
        },
        {
          "internalType": "uint256",
          "name": "",
          "type": "uint256"
        },
        {
          "internalType": "address",
          "name": "",
          "type": "address"
        },
        {
          "internalType": "bool",
          "name": "",
          "type": "bool"
        },
        {
          "internalType": "bytes32",
          "name": "",
          "type": "bytes32"
        },
        {
          "internalType": "address",
          "name": "",
          "type": "address"
        },
        {
          "internalType": "bool",
          "name": "",
          "type": "bool"
        },
        {
          "internalType": "address[]",
          "name": "",
          "type": "address[]"
        },
        {
          "internalType": "address[]",
          "name": "",
          "type": "address[]"
        }
      ],
      "stateMutability": "view",
      "type": "function",
      "constant": true
    },
    {
      "inputs": [
        {
          "internalType": "bytes32",
          "name": "_proposalId",
          "type": "bytes32"
        }
      ],
      "name": "accept",
      "outputs": [],
      "stateMutability": "nonpayable",
      "type": "function"
    },
    {
      "inputs": [
        {
          "internalType": "bytes32",
          "name": "_proposalId",
          "type": "bytes32"
        }
      ],
      "name": "reject",
      "outputs": [],
      "stateMutability": "nonpayable",
      "type": "function"
    }
  ],
  "bytecode": "0x60806040523480156200001157600080fd5b506040516200325338038062003253833981810160405260608110156200003757600080fd5b81019080805160405193929190846401000000008211156200005857600080fd5b838201915060208201858111156200006f57600080fd5b82518660208202830111640100000000821117156200008d57600080fd5b8083526020830192505050908051906020019060200280838360005b83811015620000c6578082015181840152602081019050620000a9565b50505050905001604052602001805190602001909291908051906020019092919050505060008090505b835181101562000174576001600460008684815181106200010d57fe5b602002602001015173ffffffffffffffffffffffffffffffffffffffff1673ffffffffffffffffffffffffffffffffffffffff16815260200190815260200160002060006101000a81548160ff0219169083151502179055508080600101915050620000f0565b5081600260006101000a81548163ffffffff021916908363ffffffff16021790555080600260086101000a81548163ffffffff021916908363ffffffff1602179055506000600260046101000a81548163ffffffff021916908363ffffffff1602179055506001600360007f7365744c6f636b00000000000000000000000000000000000000000000000000815260200190815260200160002060006101000a81548160ff0219169083151502179055506001600360007f73657457686974654c697374696e670000000000000000000000000000000000815260200190815260200160002060006101000a81548160ff021916908315150217905550505050612fcf80620002846000396000f3fe608060405234801561001057600080fd5b50600436106100ea5760003560e01c8063a4d66daf1161008c578063d4539dcd11610066578063d4539dcd146105c6578063e4725ba114610640578063ed3dc37f1461066e578063f438dcd814610712576100ea565b8063a4d66daf14610544578063bb8c5e491461056e578063cabd734f14610598576100ea565b8063736c0d5b116100c8578063736c0d5b146103c357806383d760471461041f578063938351b8146104a357806399a1d8db146104e5576100ea565b806308ae4a74146100ef578063109ded1e1461013557806332ed5b12146102c4575b600080fd5b61011b6004803603602081101561010557600080fd5b810190808035906020019092919050505061073c565b604051808215151515815260200191505060405180910390f35b6101616004803603602081101561014b57600080fd5b810190808035906020019092919050505061075c565b604051808b81526020018a73ffffffffffffffffffffffffffffffffffffffff1673ffffffffffffffffffffffffffffffffffffffff1681526020018981526020018873ffffffffffffffffffffffffffffffffffffffff1673ffffffffffffffffffffffffffffffffffffffff168152602001871515151581526020018681526020018573ffffffffffffffffffffffffffffffffffffffff1673ffffffffffffffffffffffffffffffffffffffff168152602001841515151581526020018060200180602001838103835285818151815260200191508051906020019060200280838360005b83811015610264578082015181840152602081019050610249565b50505050905001838103825284818151815260200191508051906020019060200280838360005b838110156102a657808201518184015260208101905061028b565b505050509050019c5050505050505050505050505060405180910390f35b6102f0600480360360208110156102da57600080fd5b8101908080359060200190929190505050610a62565b604051808981526020018873ffffffffffffffffffffffffffffffffffffffff1673ffffffffffffffffffffffffffffffffffffffff1681526020018781526020018673ffffffffffffffffffffffffffffffffffffffff1673ffffffffffffffffffffffffffffffffffffffff168152602001851515151581526020018481526020018373ffffffffffffffffffffffffffffffffffffffff1673ffffffffffffffffffffffffffffffffffffffff168152602001821515151581526020019850505050505050505060405180910390f35b610405600480360360208110156103d957600080fd5b81019080803573ffffffffffffffffffffffffffffffffffffffff169060200190929190505050610b24565b604051808215151515815260200191505060405180910390f35b6104a1600480360360a081101561043557600080fd5b810190808035906020019092919080359060200190929190803573ffffffffffffffffffffffffffffffffffffffff169060200190929190803515159060200190929190803573ffffffffffffffffffffffffffffffffffffffff169060200190929190505050610b44565b005b6104cf600480360360208110156104b957600080fd5b810190808035906020019092919050505061122b565b6040518082815260200191505060405180910390f35b6104ed61124c565b6040518080602001828103825283818151815260200191508051906020019060200280838360005b83811015610530578082015181840152602081019050610515565b505050509050019250505060405180910390f35b61054c6112a4565b604051808263ffffffff1663ffffffff16815260200191505060405180910390f35b6105766112ba565b604051808263ffffffff1663ffffffff16815260200191505060405180910390f35b6105c4600480360360208110156105ae57600080fd5b81019080803590602001909291905050506112d0565b005b61063e600480360360808110156105dc57600080fd5b8101908080359060200190929190803573ffffffffffffffffffffffffffffffffffffffff169060200190929190803515159060200190929190803573ffffffffffffffffffffffffffffffffffffffff1690602001909291905050506116a0565b005b61066c6004803603602081101561065657600080fd5b8101908080359060200190929190505050611d11565b005b610710600480360360c081101561068457600080fd5b810190808035906020019092919080359060200190929190803573ffffffffffffffffffffffffffffffffffffffff169060200190929190803573ffffffffffffffffffffffffffffffffffffffff169060200190929190803515159060200190929190803573ffffffffffffffffffffffffffffffffffffffff16906020019092919050505061272f565b005b61071a612e17565b604051808263ffffffff1663ffffffff16815260200191505060405180910390f35b60036020528060005260406000206000915054906101000a900460ff1681565b600080600080600080600080606080610773612e2d565b600160008d815260200190815260200160002060405180610140016040529081600082015481526020016001820160009054906101000a900473ffffffffffffffffffffffffffffffffffffffff1673ffffffffffffffffffffffffffffffffffffffff1673ffffffffffffffffffffffffffffffffffffffff168152602001600282015481526020016003820160009054906101000a900473ffffffffffffffffffffffffffffffffffffffff1673ffffffffffffffffffffffffffffffffffffffff1673ffffffffffffffffffffffffffffffffffffffff1681526020016003820160149054906101000a900460ff16151515158152602001600482015481526020016005820160009054906101000a900473ffffffffffffffffffffffffffffffffffffffff1673ffffffffffffffffffffffffffffffffffffffff1673ffffffffffffffffffffffffffffffffffffffff1681526020016006820180548060200260200160405190810160405280929190818152602001828054801561095257602002820191906000526020600020905b8160009054906101000a900473ffffffffffffffffffffffffffffffffffffffff1673ffffffffffffffffffffffffffffffffffffffff1681526020019060010190808311610908575b50505050508152602001600782018054806020026020016040519081016040528092919081815260200182805480156109e057602002820191906000526020600020905b8160009054906101000a900473ffffffffffffffffffffffffffffffffffffffff1673ffffffffffffffffffffffffffffffffffffffff1681526020019060010190808311610996575b505050505081526020016008820160009054906101000a900460ff1615151515815250509050806000015181602001518260400151836060015184608001518560a001518660c001518761012001518860e001518961010001518191508090509a509a509a509a509a509a509a509a509a509a50509193959799509193959799565b60016020528060005260406000206000915090508060000154908060010160009054906101000a900473ffffffffffffffffffffffffffffffffffffffff16908060020154908060030160009054906101000a900473ffffffffffffffffffffffffffffffffffffffff16908060030160149054906101000a900460ff16908060040154908060050160009054906101000a900473ffffffffffffffffffffffffffffffffffffffff16908060080160009054906101000a900460ff16905088565b60046020528060005260406000206000915054906101000a900460ff1681565b600460003373ffffffffffffffffffffffffffffffffffffffff1673ffffffffffffffffffffffffffffffffffffffff16815260200190815260200160002060009054906101000a900460ff16610c03576040517f08c379a00000000000000000000000000000000000000000000000000000000081526004018080602001828103825260028152602001807f303100000000000000000000000000000000000000000000000000000000000081525060200191505060405180910390fd5b846003600082815260200190815260200160002060009054906101000a900460ff16610c97576040517f08c379a00000000000000000000000000000000000000000000000000000000081526004018080602001828103825260028152602001807f303600000000000000000000000000000000000000000000000000000000000081525060200191505060405180910390fd5b600260049054906101000a900463ffffffff1663ffffffff16600260089054906101000a900463ffffffff1663ffffffff1611610d3c576040517f08c379a00000000000000000000000000000000000000000000000000000000081526004018080602001828103825260028152602001807f303400000000000000000000000000000000000000000000000000000000000081525060200191505060405180910390fd5b848060016000838152602001908152602001600020600001541415610dc9576040517f08c379a00000000000000000000000000000000000000000000000000000000081526004018080602001828103825260028152602001807f303200000000000000000000000000000000000000000000000000000000000081525060200191505060405180910390fd5b6040518061014001604052808781526020013373ffffffffffffffffffffffffffffffffffffffff168152602001600081526020018673ffffffffffffffffffffffffffffffffffffffff16815260200185151581526020018881526020018473ffffffffffffffffffffffffffffffffffffffff16815260200160016000898152602001908152602001600020600601805480602002602001604051908101604052809291908181526020018280548015610eda57602002820191906000526020600020905b8160009054906101000a900473ffffffffffffffffffffffffffffffffffffffff1673ffffffffffffffffffffffffffffffffffffffff1681526020019060010190808311610e90575b5050505050815260200160016000898152602001908152602001600020600701805480602002602001604051908101604052809291908181526020018280548015610f7a57602002820191906000526020600020905b8160009054906101000a900473ffffffffffffffffffffffffffffffffffffffff1673ffffffffffffffffffffffffffffffffffffffff1681526020019060010190808311610f30575b5050505050815260200160001515815250600160008881526020019081526020016000206000820151816000015560208201518160010160006101000a81548173ffffffffffffffffffffffffffffffffffffffff021916908373ffffffffffffffffffffffffffffffffffffffff1602179055506040820151816002015560608201518160030160006101000a81548173ffffffffffffffffffffffffffffffffffffffff021916908373ffffffffffffffffffffffffffffffffffffffff16021790555060808201518160030160146101000a81548160ff02191690831515021790555060a0820151816004015560c08201518160050160006101000a81548173ffffffffffffffffffffffffffffffffffffffff021916908373ffffffffffffffffffffffffffffffffffffffff16021790555060e08201518160060190805190602001906110cd929190612ecc565b506101008201518160070190805190602001906110eb929190612ecc565b506101208201518160080160006101000a81548160ff02191690831515021790555090505060016000878152602001908152602001600020600601339080600181540180825580915050600190039060005260206000200160009091909190916101000a81548173ffffffffffffffffffffffffffffffffffffffff021916908373ffffffffffffffffffffffffffffffffffffffff1602179055506002600481819054906101000a900463ffffffff168092919060010191906101000a81548163ffffffff021916908363ffffffff1602179055505060058690806001815401808255809150506001900390600052602060002001600090919091909150557f06efe3b09bcc19be760f8a5fa8362a04fe954317fa37f5ea3e91e58b839fa7b3866040518082815260200191505060405180910390a150505050505050565b6005818154811061123857fe5b906000526020600020016000915090505481565b6060600580548060200260200160405190810160405280929190818152602001828054801561129a57602002820191906000526020600020905b815481526020019060010190808311611286575b5050505050905090565b600260009054906101000a900463ffffffff1681565b600260089054906101000a900463ffffffff1681565b600460003373ffffffffffffffffffffffffffffffffffffffff1673ffffffffffffffffffffffffffffffffffffffff16815260200190815260200160002060009054906101000a900460ff1661138f576040517f08c379a00000000000000000000000000000000000000000000000000000000081526004018080602001828103825260028152602001807f303100000000000000000000000000000000000000000000000000000000000081525060200191505060405180910390fd5b808060016000838152602001908152602001600020600001541461141b576040517f08c379a00000000000000000000000000000000000000000000000000000000081526004018080602001828103825260028152602001807f303300000000000000000000000000000000000000000000000000000000000081525060200191505060405180910390fd5b816001600082815260200190815260200160002060080160009054906101000a900460ff16156114b3576040517f08c379a00000000000000000000000000000000000000000000000000000000081526004018080602001828103825260028152602001807f303500000000000000000000000000000000000000000000000000000000000081525060200191505060405180910390fd5b60016000848152602001908152602001600020600701339080600181540180825580915050600190039060005260206000200160009091909190916101000a81548173ffffffffffffffffffffffffffffffffffffffff021916908373ffffffffffffffffffffffffffffffffffffffff16021790555060008090505b6001600085815260200190815260200160002060060180549050811015611630573373ffffffffffffffffffffffffffffffffffffffff1660016000868152602001908152602001600020600601828154811061158957fe5b9060005260206000200160009054906101000a900473ffffffffffffffffffffffffffffffffffffffff1673ffffffffffffffffffffffffffffffffffffffff161415611623576001600085815260200190815260200160002060060181815481106115f157fe5b9060005260206000200160006101000a81549073ffffffffffffffffffffffffffffffffffffffff0219169055611630565b8080600101915050611530565b50600180600085815260200190815260200160002060080160006101000a81548160ff0219169083151502179055506002600481819054906101000a900463ffffffff16809291906001900391906101000a81548163ffffffff021916908363ffffffff16021790555050505050565b600460003373ffffffffffffffffffffffffffffffffffffffff1673ffffffffffffffffffffffffffffffffffffffff16815260200190815260200160002060009054906101000a900460ff1661175f576040517f08c379a00000000000000000000000000000000000000000000000000000000081526004018080602001828103825260028152602001807f303100000000000000000000000000000000000000000000000000000000000081525060200191505060405180910390fd5b600260049054906101000a900463ffffffff1663ffffffff16600260089054906101000a900463ffffffff1663ffffffff1611611804576040517f08c379a00000000000000000000000000000000000000000000000000000000081526004018080602001828103825260028152602001807f303400000000000000000000000000000000000000000000000000000000000081525060200191505060405180910390fd5b838060016000838152602001908152602001600020600001541415611891576040517f08c379a00000000000000000000000000000000000000000000000000000000081526004018080602001828103825260028152602001807f303200000000000000000000000000000000000000000000000000000000000081525060200191505060405180910390fd5b6040518061014001604052808681526020013373ffffffffffffffffffffffffffffffffffffffff168152602001600081526020018573ffffffffffffffffffffffffffffffffffffffff16815260200184151581526020017f736574506175736500000000000000000000000000000000000000000000000081526020018373ffffffffffffffffffffffffffffffffffffffff168152602001600160008881526020019081526020016000206006018054806020026020016040519081016040528092919081815260200182805480156119c257602002820191906000526020600020905b8160009054906101000a900473ffffffffffffffffffffffffffffffffffffffff1673ffffffffffffffffffffffffffffffffffffffff1681526020019060010190808311611978575b5050505050815260200160016000888152602001908152602001600020600701805480602002602001604051908101604052809291908181526020018280548015611a6257602002820191906000526020600020905b8160009054906101000a900473ffffffffffffffffffffffffffffffffffffffff1673ffffffffffffffffffffffffffffffffffffffff1681526020019060010190808311611a18575b5050505050815260200160001515815250600160008781526020019081526020016000206000820151816000015560208201518160010160006101000a81548173ffffffffffffffffffffffffffffffffffffffff021916908373ffffffffffffffffffffffffffffffffffffffff1602179055506040820151816002015560608201518160030160006101000a81548173ffffffffffffffffffffffffffffffffffffffff021916908373ffffffffffffffffffffffffffffffffffffffff16021790555060808201518160030160146101000a81548160ff02191690831515021790555060a0820151816004015560c08201518160050160006101000a81548173ffffffffffffffffffffffffffffffffffffffff021916908373ffffffffffffffffffffffffffffffffffffffff16021790555060e0820151816006019080519060200190611bb5929190612ecc565b50610100820151816007019080519060200190611bd3929190612ecc565b506101208201518160080160006101000a81548160ff02191690831515021790555090505060016000868152602001908152602001600020600601339080600181540180825580915050600190039060005260206000200160009091909190916101000a81548173ffffffffffffffffffffffffffffffffffffffff021916908373ffffffffffffffffffffffffffffffffffffffff16021790555060058590806001815401808255809150506001900390600052602060002001600090919091909150556002600481819054906101000a900463ffffffff168092919060010191906101000a81548163ffffffff021916908363ffffffff160217905550507f06efe3b09bcc19be760f8a5fa8362a04fe954317fa37f5ea3e91e58b839fa7b3856040518082815260200191505060405180910390a15050505050565b600460003373ffffffffffffffffffffffffffffffffffffffff1673ffffffffffffffffffffffffffffffffffffffff16815260200190815260200160002060009054906101000a900460ff16611dd0576040517f08c379a00000000000000000000000000000000000000000000000000000000081526004018080602001828103825260028152602001807f303100000000000000000000000000000000000000000000000000000000000081525060200191505060405180910390fd5b8080600160008381526020019081526020016000206000015414611e5c576040517f08c379a00000000000000000000000000000000000000000000000000000000081526004018080602001828103825260028152602001807f303300000000000000000000000000000000000000000000000000000000000081525060200191505060405180910390fd5b816001600082815260200190815260200160002060080160009054906101000a900460ff1615611ef4576040517f08c379a00000000000000000000000000000000000000000000000000000000081526004018080602001828103825260028152602001807f303500000000000000000000000000000000000000000000000000000000000081525060200191505060405180910390fd5b82600080905060008090505b6001600084815260200190815260200160002060060180549050811015611fb6573373ffffffffffffffffffffffffffffffffffffffff16600160008581526020019081526020016000206006018281548110611f5957fe5b9060005260206000200160009054906101000a900473ffffffffffffffffffffffffffffffffffffffff1673ffffffffffffffffffffffffffffffffffffffff161415611fa95760019150611fb6565b8080600101915050611f00565b506000151581151514612031576040517f08c379a00000000000000000000000000000000000000000000000000000000081526004018080602001828103825260028152602001807f303700000000000000000000000000000000000000000000000000000000000081525060200191505060405180910390fd5b60016000868152602001908152602001600020600601339080600181540180825580915050600190039060005260206000200160009091909190916101000a81548173ffffffffffffffffffffffffffffffffffffffff021916908373ffffffffffffffffffffffffffffffffffffffff160217905550600260009054906101000a900463ffffffff1663ffffffff1660016000878152602001908152602001600020600601805490501415612728576001600086815260200190815260200160002060050160009054906101000a900473ffffffffffffffffffffffffffffffffffffffff166000806101000a81548173ffffffffffffffffffffffffffffffffffffffff021916908373ffffffffffffffffffffffffffffffffffffffff1602179055507f73657457686974654c697374696e670000000000000000000000000000000000600160008781526020019081526020016000206004015414156122b7576000809054906101000a900473ffffffffffffffffffffffffffffffffffffffff1673ffffffffffffffffffffffffffffffffffffffff166353d6fd596001600088815260200190815260200160002060030160009054906101000a900473ffffffffffffffffffffffffffffffffffffffff166001600089815260200190815260200160002060030160149054906101000a900460ff166040518363ffffffff1660e01b8152600401808373ffffffffffffffffffffffffffffffffffffffff1673ffffffffffffffffffffffffffffffffffffffff1681526020018215151515815260200192505050600060405180830381600087803b15801561229a57600080fd5b505af11580156122ae573d6000803e3d6000fd5b50505050612686565b7f7365744c6f636b0000000000000000000000000000000000000000000000000060016000878152602001908152602001600020600401541415612417576000809054906101000a900473ffffffffffffffffffffffffffffffffffffffff1673ffffffffffffffffffffffffffffffffffffffff1663b03c4b336001600088815260200190815260200160002060030160009054906101000a900473ffffffffffffffffffffffffffffffffffffffff166001600089815260200190815260200160002060030160149054906101000a900460ff166040518363ffffffff1660e01b8152600401808373ffffffffffffffffffffffffffffffffffffffff1673ffffffffffffffffffffffffffffffffffffffff1681526020018215151515815260200192505050600060405180830381600087803b1580156123fa57600080fd5b505af115801561240e573d6000803e3d6000fd5b50505050612685565b7f7472616e73666572000000000000000000000000000000000000000000000000600160008781526020019081526020016000206004015414156125d0576000809054906101000a900473ffffffffffffffffffffffffffffffffffffffff1673ffffffffffffffffffffffffffffffffffffffff1663ccb570e360016000888152602001908152602001600020600201546001600089815260200190815260200160002060010160009054906101000a900473ffffffffffffffffffffffffffffffffffffffff16600160008a815260200190815260200160002060030160009054906101000a900473ffffffffffffffffffffffffffffffffffffffff166040518463ffffffff1660e01b8152600401808481526020018373ffffffffffffffffffffffffffffffffffffffff1673ffffffffffffffffffffffffffffffffffffffff1681526020018273ffffffffffffffffffffffffffffffffffffffff1673ffffffffffffffffffffffffffffffffffffffff1681526020019350505050600060405180830381600087803b1580156125b357600080fd5b505af11580156125c7573d6000803e3d6000fd5b50505050612684565b6000809054906101000a900473ffffffffffffffffffffffffffffffffffffffff1673ffffffffffffffffffffffffffffffffffffffff1663bedb86fb6001600088815260200190815260200160002060030160149054906101000a900460ff166040518263ffffffff1660e01b81526004018082151515158152602001915050600060405180830381600087803b15801561266b57600080fd5b505af115801561267f573d6000803e3d6000fd5b505050505b5b5b600180600087815260200190815260200160002060080160006101000a81548160ff0219169083151502179055506002600481819054906101000a900463ffffffff16809291906001900391906101000a81548163ffffffff021916908363ffffffff160217905550507f9d079b18d4d4221cde3b8ab9c625437c24b4efeb6aa966af5d3216495e776a5a856040518082815260200191505060405180910390a15b5050505050565b600460003373ffffffffffffffffffffffffffffffffffffffff1673ffffffffffffffffffffffffffffffffffffffff16815260200190815260200160002060009054906101000a900460ff166127ee576040517f08c379a00000000000000000000000000000000000000000000000000000000081526004018080602001828103825260028152602001807f303100000000000000000000000000000000000000000000000000000000000081525060200191505060405180910390fd5b600260049054906101000a900463ffffffff1663ffffffff16600260089054906101000a900463ffffffff1663ffffffff1611612893576040517f08c379a00000000000000000000000000000000000000000000000000000000081526004018080602001828103825260028152602001807f303400000000000000000000000000000000000000000000000000000000000081525060200191505060405180910390fd5b858060016000838152602001908152602001600020600001541415612920576040517f08c379a00000000000000000000000000000000000000000000000000000000081526004018080602001828103825260028152602001807f303200000000000000000000000000000000000000000000000000000000000081525060200191505060405180910390fd5b60008611612996576040517f08c379a00000000000000000000000000000000000000000000000000000000081526004018080602001828103825260028152602001807f303700000000000000000000000000000000000000000000000000000000000081525060200191505060405180910390fd5b6040518061014001604052808881526020018573ffffffffffffffffffffffffffffffffffffffff1681526020018781526020018673ffffffffffffffffffffffffffffffffffffffff16815260200184151581526020017f7472616e7366657200000000000000000000000000000000000000000000000081526020018373ffffffffffffffffffffffffffffffffffffffff168152602001600160008a8152602001908152602001600020600601805480602002602001604051908101604052809291908181526020018280548015612ac657602002820191906000526020600020905b8160009054906101000a900473ffffffffffffffffffffffffffffffffffffffff1673ffffffffffffffffffffffffffffffffffffffff1681526020019060010190808311612a7c575b50505050508152602001600160008a8152602001908152602001600020600701805480602002602001604051908101604052809291908181526020018280548015612b6657602002820191906000526020600020905b8160009054906101000a900473ffffffffffffffffffffffffffffffffffffffff1673ffffffffffffffffffffffffffffffffffffffff1681526020019060010190808311612b1c575b5050505050815260200160001515815250600160008981526020019081526020016000206000820151816000015560208201518160010160006101000a81548173ffffffffffffffffffffffffffffffffffffffff021916908373ffffffffffffffffffffffffffffffffffffffff1602179055506040820151816002015560608201518160030160006101000a81548173ffffffffffffffffffffffffffffffffffffffff021916908373ffffffffffffffffffffffffffffffffffffffff16021790555060808201518160030160146101000a81548160ff02191690831515021790555060a0820151816004015560c08201518160050160006101000a81548173ffffffffffffffffffffffffffffffffffffffff021916908373ffffffffffffffffffffffffffffffffffffffff16021790555060e0820151816006019080519060200190612cb9929190612ecc565b50610100820151816007019080519060200190612cd7929190612ecc565b506101208201518160080160006101000a81548160ff02191690831515021790555090505060016000888152602001908152602001600020600601339080600181540180825580915050600190039060005260206000200160009091909190916101000a81548173ffffffffffffffffffffffffffffffffffffffff021916908373ffffffffffffffffffffffffffffffffffffffff16021790555060058790806001815401808255809150506001900390600052602060002001600090919091909150556002600481819054906101000a900463ffffffff168092919060010191906101000a81548163ffffffff021916908363ffffffff160217905550507f06efe3b09bcc19be760f8a5fa8362a04fe954317fa37f5ea3e91e58b839fa7b3876040518082815260200191505060405180910390a150505050505050565b600260049054906101000a900463ffffffff1681565b60405180610140016040528060008019168152602001600073ffffffffffffffffffffffffffffffffffffffff16815260200160008152602001600073ffffffffffffffffffffffffffffffffffffffff16815260200160001515815260200160008019168152602001600073ffffffffffffffffffffffffffffffffffffffff16815260200160608152602001606081526020016000151581525090565b828054828255906000526020600020908101928215612f45579160200282015b82811115612f445782518260006101000a81548173ffffffffffffffffffffffffffffffffffffffff021916908373ffffffffffffffffffffffffffffffffffffffff16021790555091602001919060010190612eec565b5b509050612f529190612f56565b5090565b612f9691905b80821115612f9257600081816101000a81549073ffffffffffffffffffffffffffffffffffffffff021916905550600101612f5c565b5090565b9056fea264697066735822122042e9ac249deef1d324254564822bfa1ec05a59aedb98a21df3bc99fb5817934d64736f6c63430006000033",
  "source": "//SPDX-License-Identifier: MITC\r\npragma solidity >=0.4.22 <0.8.0;\r\nimport \"./InterfaceStablecoin.sol\";\r\n\r\ncontract AdminMultisig {\r\n    InterfaceStablecoin lc;\r\n    struct proposal {\r\n        bytes32 proposalId;\r\n        address f;\r\n        uint256 amount;\r\n        address t;\r\n        bool state;\r\n        bytes32 operation;\r\n        address contractAddr;\r\n        address[] approvals;\r\n        address[] rejects;\r\n        bool status;\r\n    }\r\n    mapping(bytes32 => proposal) public proposals;\r\n    uint32 public limit;\r\n    uint32 public openProposals;\r\n    uint32 public restriction;\r\n    mapping(bytes32 => bool) public authOps;\r\n    mapping(address => bool) public signers;\r\n    event addProposal(bytes32 proposalId);\r\n    event acceptProposal(bytes32 proposalId);\r\n    bytes32[] public allProposals;\r\n\r\n    constructor(\r\n        address[] memory _signers,\r\n        uint32 _limit,\r\n        uint32 _restriction\r\n    ) public {\r\n        for (uint256 i = 0; i < _signers.length; i++) {\r\n            signers[_signers[i]] = true;\r\n        }\r\n        limit = _limit;\r\n        restriction = _restriction;\r\n        openProposals = 0;\r\n        authOps[\"setLock\"] = true;\r\n        authOps[\"setWhiteListing\"] = true;\r\n    }\r\n\r\n    /*###\r\n    Verification utils\r\n      ###*/\r\n\r\n    modifier checkSigner() {\r\n        require(signers[msg.sender], \"01\");\r\n        _;\r\n    }\r\n\r\n    modifier checkNewProposal(bytes32 _proposalId) {\r\n        require(proposals[_proposalId].proposalId != _proposalId, \"02\");\r\n        _;\r\n    }\r\n\r\n    modifier checkProposal(bytes32 _proposalId) {\r\n        require(proposals[_proposalId].proposalId == _proposalId, \"03\");\r\n        _;\r\n    }\r\n\r\n    modifier checkRestriction() {\r\n        require(restriction > openProposals, \"04\");\r\n        _;\r\n    }\r\n\r\n    modifier checkOpen(bytes32 _proposalId) {\r\n        require(!proposals[_proposalId].status, \"05\");\r\n        _;\r\n    }\r\n\r\n    modifier checkOperation(bytes32 _operation) {\r\n        require(authOps[_operation], \"06\");\r\n        _;\r\n    }\r\n    modifier checkAlreadyAccept(bytes32 _proposalId) {\r\n        bool contains = false;\r\n        for (uint256 i = 0; i < proposals[_proposalId].approvals.length; i++) {\r\n            if (proposals[_proposalId].approvals[i] == msg.sender) {\r\n                contains = true;\r\n                break;\r\n            }\r\n        }\r\n        require(contains == false, \"07\");\r\n        _;\r\n    }\r\n\r\n    function createAddressProposal(\r\n        bytes32 _operation,\r\n        bytes32 _proposalId,\r\n        address _to,\r\n        bool _state,\r\n        address _contractAddress\r\n    )\r\n        public\r\n        checkSigner()\r\n        checkOperation(_operation)\r\n        checkRestriction()\r\n        checkNewProposal(_proposalId)\r\n    {\r\n        proposals[_proposalId] = proposal(\r\n            _proposalId,\r\n            msg.sender,\r\n            0,\r\n            _to,\r\n            _state,\r\n            _operation,\r\n            _contractAddress,\r\n            proposals[_proposalId].approvals,\r\n            proposals[_proposalId].rejects,\r\n            false\r\n        );\r\n        proposals[_proposalId].approvals.push(msg.sender);\r\n        openProposals++;\r\n        allProposals.push(_proposalId);\r\n        emit addProposal(_proposalId);\r\n    }\r\n\r\n    function createPauseProposal(\r\n        bytes32 _proposalId,\r\n        address _to,\r\n        bool _state,\r\n        address _contractAddress\r\n    ) public checkSigner() checkRestriction() checkNewProposal(_proposalId) {\r\n        proposals[_proposalId] = proposal(\r\n            _proposalId,\r\n            msg.sender,\r\n            0,\r\n            _to,\r\n            _state,\r\n            \"setPause\",\r\n            _contractAddress,\r\n            proposals[_proposalId].approvals,\r\n            proposals[_proposalId].rejects,\r\n            false\r\n        );\r\n        proposals[_proposalId].approvals.push(msg.sender);\r\n        allProposals.push(_proposalId);\r\n        openProposals++;\r\n        emit addProposal(_proposalId);\r\n    }\r\n\r\n    function createTransferProposal(\r\n        bytes32 _proposalId,\r\n        uint256 _amount,\r\n        address _to,\r\n        address _from,\r\n        bool _state,\r\n        address _contractAddress\r\n    ) public checkSigner() checkRestriction() checkNewProposal(_proposalId) {\r\n        require(_amount > 0, \"07\");\r\n        proposals[_proposalId] = proposal(\r\n            _proposalId,\r\n            _from,\r\n            _amount,\r\n            _to,\r\n            _state,\r\n            \"transfer\",\r\n            _contractAddress,\r\n            proposals[_proposalId].approvals,\r\n            proposals[_proposalId].rejects,\r\n            false\r\n        );\r\n        proposals[_proposalId].approvals.push(msg.sender);\r\n        allProposals.push(_proposalId);\r\n        openProposals++;\r\n        emit addProposal(_proposalId);\r\n    }\r\n\r\n    function getAllProposalsId() public view returns (bytes32[] memory) {\r\n        return allProposals;\r\n    }\r\n\r\n    function getProposalById(bytes32 index)\r\n        public\r\n        view\r\n        returns (\r\n            bytes32,\r\n            address,\r\n            uint256,\r\n            address,\r\n            bool,\r\n            bytes32,\r\n            address,\r\n            bool,\r\n            address[] memory,\r\n            address[] memory\r\n        )\r\n    {\r\n        proposal memory p = proposals[index];\r\n        return (\r\n            p.proposalId,\r\n            p.f,\r\n            p.amount,\r\n            p.t,\r\n            p.state,\r\n            p.operation,\r\n            p.contractAddr,\r\n            p.status,\r\n            p.approvals,\r\n            p.rejects\r\n        );\r\n    }\r\n\r\n    function accept(bytes32 _proposalId)\r\n        public\r\n        checkSigner()\r\n        checkProposal(_proposalId)\r\n        checkOpen(_proposalId)\r\n        checkAlreadyAccept(_proposalId)\r\n    {\r\n        proposals[_proposalId].approvals.push(msg.sender);\r\n        if (proposals[_proposalId].approvals.length == limit) {\r\n            lc = InterfaceStablecoin(proposals[_proposalId].contractAddr);\r\n            if (proposals[_proposalId].operation == \"setWhiteListing\") {\r\n                lc.setWhitelist(\r\n                    proposals[_proposalId].t,\r\n                    proposals[_proposalId].state\r\n                );\r\n            } else if (proposals[_proposalId].operation == \"setLock\") {\r\n                lc.setLock(\r\n                    proposals[_proposalId].t,\r\n                    proposals[_proposalId].state\r\n                );\r\n            } else if (proposals[_proposalId].operation == \"transfer\") {\r\n                lc.transfer(\r\n                    proposals[_proposalId].amount,\r\n                    proposals[_proposalId].f,\r\n                    proposals[_proposalId].t\r\n                );\r\n            } else {\r\n                lc.setPause(proposals[_proposalId].state);\r\n            }\r\n            proposals[_proposalId].status = true;\r\n            openProposals--;\r\n            emit acceptProposal(_proposalId);\r\n        }\r\n    }\r\n\r\n    function reject(bytes32 _proposalId)\r\n        public\r\n        checkSigner()\r\n        checkProposal(_proposalId)\r\n        checkOpen(_proposalId)\r\n    {\r\n        proposals[_proposalId].rejects.push(msg.sender);\r\n        for (uint256 i = 0; i < proposals[_proposalId].approvals.length; i++) {\r\n            if (proposals[_proposalId].approvals[i] == msg.sender) {\r\n                delete proposals[_proposalId].approvals[i];\r\n                break;\r\n            }\r\n        }\r\n        proposals[_proposalId].status = true;\r\n        openProposals--;\r\n    }\r\n}\r\n",
  "sourcePath": "C:/Users/Alexandre/Desktop/Cours/PI2_A5/Contrats/eth-stable-coin/stablecoin/contracts/AdminMultisig.sol",
  "compiler": {
    "name": "solc",
    "version": "0.6.0+commit.26b70077.Emscripten.clang"
  },
  "schemaVersion": "3.3.1",
  "updatedAt": "2020-12-21T17:45:25.840Z",
  "networkType": "ethereum",
  "devdoc": {
    "methods": {}
  },
  "userdoc": {
    "methods": {}
  }
}