{
  "contractName": "MinterMultisig",
  "abi": [
    {
      "inputs": [
        {
          "internalType": "uint32",
          "name": "_limit",
          "type": "uint32"
        },
        {
          "internalType": "uint32",
          "name": "_restriction",
          "type": "uint32"
        },
        {
          "internalType": "address[]",
          "name": "_operators",
          "type": "address[]"
        },
        {
          "internalType": "address[]",
          "name": "_controllers",
          "type": "address[]"
        }
      ],
      "stateMutability": "nonpayable",
      "type": "constructor"
    },
    {
      "inputs": [
        {
          "internalType": "uint256",
          "name": "",
          "type": "uint256"
        }
      ],
      "name": "allProposals",
      "outputs": [
        {
          "internalType": "bytes32",
          "name": "",
          "type": "bytes32"
        }
      ],
      "stateMutability": "view",
      "type": "function",
      "constant": true
    },
    {
      "inputs": [
        {
          "internalType": "bytes32",
          "name": "",
          "type": "bytes32"
        }
      ],
      "name": "authOps",
      "outputs": [
        {
          "internalType": "bool",
          "name": "",
          "type": "bool"
        }
      ],
      "stateMutability": "view",
      "type": "function",
      "constant": true
    },
    {
      "inputs": [
        {
          "internalType": "address",
          "name": "",
          "type": "address"
        }
      ],
      "name": "controllers",
      "outputs": [
        {
          "internalType": "bool",
          "name": "",
          "type": "bool"
        }
      ],
      "stateMutability": "view",
      "type": "function",
      "constant": true
    },
    {
      "inputs": [],
      "name": "limit",
      "outputs": [
        {
          "internalType": "uint32",
          "name": "",
          "type": "uint32"
        }
      ],
      "stateMutability": "view",
      "type": "function",
      "constant": true
    },
    {
      "inputs": [],
      "name": "openProposals",
      "outputs": [
        {
          "internalType": "uint32",
          "name": "",
          "type": "uint32"
        }
      ],
      "stateMutability": "view",
      "type": "function",
      "constant": true
    },
    {
      "inputs": [
        {
          "internalType": "address",
          "name": "",
          "type": "address"
        }
      ],
      "name": "operators",
      "outputs": [
        {
          "internalType": "bool",
          "name": "",
          "type": "bool"
        }
      ],
      "stateMutability": "view",
      "type": "function",
      "constant": true
    },
    {
      "inputs": [
        {
          "internalType": "bytes32",
          "name": "",
          "type": "bytes32"
        }
      ],
      "name": "proposals",
      "outputs": [
        {
          "internalType": "bytes32",
          "name": "proposalId",
          "type": "bytes32"
        },
        {
          "internalType": "uint256",
          "name": "amount",
          "type": "uint256"
        },
        {
          "internalType": "bytes32",
          "name": "operation",
          "type": "bytes32"
        },
        {
          "internalType": "address",
          "name": "contractAddr",
          "type": "address"
        },
        {
          "internalType": "bool",
          "name": "status",
          "type": "bool"
        }
      ],
      "stateMutability": "view",
      "type": "function",
      "constant": true
    },
    {
      "inputs": [],
      "name": "restriction",
      "outputs": [
        {
          "internalType": "uint32",
          "name": "",
          "type": "uint32"
        }
      ],
      "stateMutability": "view",
      "type": "function",
      "constant": true
    },
    {
      "inputs": [
        {
          "internalType": "bytes32",
          "name": "_proposalId",
          "type": "bytes32"
        },
        {
          "internalType": "uint256",
          "name": "_amount",
          "type": "uint256"
        },
        {
          "internalType": "bytes32",
          "name": "_operation",
          "type": "bytes32"
        },
        {
          "internalType": "address",
          "name": "_contractAddr",
          "type": "address"
        }
      ],
      "name": "createProposal",
      "outputs": [],
      "stateMutability": "nonpayable",
      "type": "function"
    },
    {
      "inputs": [],
      "name": "getAllProposalsId",
      "outputs": [
        {
          "internalType": "bytes32[]",
          "name": "",
          "type": "bytes32[]"
        }
      ],
      "stateMutability": "view",
      "type": "function",
      "constant": true
    },
    {
      "inputs": [
        {
          "internalType": "bytes32",
          "name": "index",
          "type": "bytes32"
        }
      ],
      "name": "getProposalById",
      "outputs": [
        {
          "internalType": "bytes32",
          "name": "",
          "type": "bytes32"
        },
        {
          "internalType": "uint256",
          "name": "",
          "type": "uint256"
        },
        {
          "internalType": "bytes32",
          "name": "",
          "type": "bytes32"
        },
        {
          "internalType": "address",
          "name": "",
          "type": "address"
        },
        {
          "internalType": "address[]",
          "name": "",
          "type": "address[]"
        },
        {
          "internalType": "address[]",
          "name": "",
          "type": "address[]"
        },
        {
          "internalType": "address[]",
          "name": "",
          "type": "address[]"
        },
        {
          "internalType": "address[]",
          "name": "",
          "type": "address[]"
        },
        {
          "internalType": "bool",
          "name": "",
          "type": "bool"
        }
      ],
      "stateMutability": "view",
      "type": "function",
      "constant": true
    },
    {
      "inputs": [
        {
          "internalType": "bytes32",
          "name": "_proposalId",
          "type": "bytes32"
        }
      ],
      "name": "accept",
      "outputs": [],
      "stateMutability": "nonpayable",
      "type": "function"
    },
    {
      "inputs": [
        {
          "internalType": "bytes32",
          "name": "_proposalId",
          "type": "bytes32"
        }
      ],
      "name": "reject",
      "outputs": [],
      "stateMutability": "nonpayable",
      "type": "function"
    }
  ],
  "bytecode": "0x6080604052600080601c6101000a81548163ffffffff021916908363ffffffff1602179055503480156200003257600080fd5b50604051620027c9380380620027c9833981810160405260808110156200005857600080fd5b810190808051906020019092919080519060200190929190805160405193929190846401000000008211156200008d57600080fd5b83820191506020820185811115620000a457600080fd5b8251866020820283011164010000000082111715620000c257600080fd5b8083526020830192505050908051906020019060200280838360005b83811015620000fb578082015181840152602081019050620000de565b50505050905001604052602001805160405193929190846401000000008211156200012557600080fd5b838201915060208201858111156200013c57600080fd5b82518660208202830111640100000000821117156200015a57600080fd5b8083526020830192505050908051906020019060200280838360005b838110156200019357808201518184015260208101905062000176565b5050505090500160405250505060008090505b82518110156200022a57600160036000858481518110620001c357fe5b602002602001015173ffffffffffffffffffffffffffffffffffffffff1673ffffffffffffffffffffffffffffffffffffffff16815260200190815260200160002060006101000a81548160ff0219169083151502179055508080600101915050620001a6565b5060008090505b8151811015620002b5576001600260008484815181106200024e57fe5b602002602001015173ffffffffffffffffffffffffffffffffffffffff1673ffffffffffffffffffffffffffffffffffffffff16815260200190815260200160002060006101000a81548160ff021916908315150217905550808060010191505062000231565b506001600560007f6d696e7400000000000000000000000000000000000000000000000000000000815260200190815260200160002060006101000a81548160ff0219169083151502179055506001600560007f6275726e00000000000000000000000000000000000000000000000000000000815260200190815260200160002060006101000a81548160ff02191690831515021790555083600060146101000a81548163ffffffff021916908363ffffffff16021790555082600060186101000a81548163ffffffff021916908363ffffffff1602179055505050505061242580620003a46000396000f3fe608060405234801561001057600080fd5b50600436106100cf5760003560e01c8063a4d66daf1161008c578063cd28f1e911610066578063cd28f1e9146104d5578063da8c229e14610537578063e4725ba114610593578063f438dcd8146105c1576100cf565b8063a4d66daf14610453578063bb8c5e491461047d578063cabd734f146104a7576100cf565b806308ae4a74146100d4578063109ded1e1461011a57806313e7c9d8146102c857806332ed5b1214610324578063938351b8146103b257806399a1d8db146103f4575b600080fd5b610100600480360360208110156100ea57600080fd5b81019080803590602001909291905050506105eb565b604051808215151515815260200191505060405180910390f35b6101466004803603602081101561013057600080fd5b810190808035906020019092919050505061060b565b604051808a81526020018981526020018881526020018773ffffffffffffffffffffffffffffffffffffffff1673ffffffffffffffffffffffffffffffffffffffff168152602001806020018060200180602001806020018615151515815260200185810385528a818151815260200191508051906020019060200280838360005b838110156101e35780820151818401526020810190506101c8565b50505050905001858103845289818151815260200191508051906020019060200280838360005b8381101561022557808201518184015260208101905061020a565b50505050905001858103835288818151815260200191508051906020019060200280838360005b8381101561026757808201518184015260208101905061024c565b50505050905001858103825287818151815260200191508051906020019060200280838360005b838110156102a957808201518184015260208101905061028e565b505050509050019d505050505050505050505050505060405180910390f35b61030a600480360360208110156102de57600080fd5b81019080803573ffffffffffffffffffffffffffffffffffffffff169060200190929190505050610963565b604051808215151515815260200191505060405180910390f35b6103506004803603602081101561033a57600080fd5b8101908080359060200190929190505050610983565b604051808681526020018581526020018481526020018373ffffffffffffffffffffffffffffffffffffffff1673ffffffffffffffffffffffffffffffffffffffff168152602001821515151581526020019550505050505060405180910390f35b6103de600480360360208110156103c857600080fd5b81019080803590602001909291905050506109e6565b6040518082815260200191505060405180910390f35b6103fc610a07565b6040518080602001828103825283818151815260200191508051906020019060200280838360005b8381101561043f578082015181840152602081019050610424565b505050509050019250505060405180910390f35b61045b610a5f565b604051808263ffffffff1663ffffffff16815260200191505060405180910390f35b610485610a75565b604051808263ffffffff1663ffffffff16815260200191505060405180910390f35b6104d3600480360360208110156104bd57600080fd5b8101908080359060200190929190505050610a8b565b005b610535600480360360808110156104eb57600080fd5b81019080803590602001909291908035906020019092919080359060200190929190803573ffffffffffffffffffffffffffffffffffffffff16906020019092919050505061108d565b005b6105796004803603602081101561054d57600080fd5b81019080803573ffffffffffffffffffffffffffffffffffffffff169060200190929190505050611968565b604051808215151515815260200191505060405180910390f35b6105bf600480360360208110156105a957600080fd5b8101908080359060200190929190505050611988565b005b6105c96122a2565b604051808263ffffffff1663ffffffff16815260200191505060405180910390f35b60056020528060005260406000206000915054906101000a900460ff1681565b60008060008060608060608060006106216122b8565b600460008c8152602001908152602001600020604051806101200160405290816000820154815260200160018201548152602001600282015481526020016003820160009054906101000a900473ffffffffffffffffffffffffffffffffffffffff1673ffffffffffffffffffffffffffffffffffffffff1673ffffffffffffffffffffffffffffffffffffffff1681526020016004820180548060200260200160405190810160405280929190818152602001828054801561073957602002820191906000526020600020905b8160009054906101000a900473ffffffffffffffffffffffffffffffffffffffff1673ffffffffffffffffffffffffffffffffffffffff16815260200190600101908083116106ef575b50505050508152602001600582018054806020026020016040519081016040528092919081815260200182805480156107c757602002820191906000526020600020905b8160009054906101000a900473ffffffffffffffffffffffffffffffffffffffff1673ffffffffffffffffffffffffffffffffffffffff168152602001906001019080831161077d575b505050505081526020016006820180548060200260200160405190810160405280929190818152602001828054801561085557602002820191906000526020600020905b8160009054906101000a900473ffffffffffffffffffffffffffffffffffffffff1673ffffffffffffffffffffffffffffffffffffffff168152602001906001019080831161080b575b50505050508152602001600782018054806020026020016040519081016040528092919081815260200182805480156108e357602002820191906000526020600020905b8160009054906101000a900473ffffffffffffffffffffffffffffffffffffffff1673ffffffffffffffffffffffffffffffffffffffff1681526020019060010190808311610899575b505050505081526020016008820160009054906101000a900460ff1615151515815250509050806000015181602001518260400151836060015184608001518560a001518660c001518760e00151886101000151849450839350829250819150995099509950995099509950995099509950509193959799909294969850565b60036020528060005260406000206000915054906101000a900460ff1681565b60046020528060005260406000206000915090508060000154908060010154908060020154908060030160009054906101000a900473ffffffffffffffffffffffffffffffffffffffff16908060080160009054906101000a900460ff16905085565b600181815481106109f357fe5b906000526020600020016000915090505481565b60606001805480602002602001604051908101604052809291908181526020018280548015610a5557602002820191906000526020600020905b815481526020019060010190808311610a41575b5050505050905090565b600060149054906101000a900463ffffffff1681565b600060189054906101000a900463ffffffff1681565b600360003373ffffffffffffffffffffffffffffffffffffffff1673ffffffffffffffffffffffffffffffffffffffff16815260200190815260200160002060009054906101000a900460ff1680610b2c5750600260003373ffffffffffffffffffffffffffffffffffffffff1673ffffffffffffffffffffffffffffffffffffffff16815260200190815260200160002060009054906101000a900460ff165b610b9e576040517f08c379a00000000000000000000000000000000000000000000000000000000081526004018080602001828103825260028152602001807f303100000000000000000000000000000000000000000000000000000000000081525060200191505060405180910390fd5b8080600460008381526020019081526020016000206000015414610c2a576040517f08c379a00000000000000000000000000000000000000000000000000000000081526004018080602001828103825260028152602001807f303300000000000000000000000000000000000000000000000000000000000081525060200191505060405180910390fd5b816004600082815260200190815260200160002060080160009054906101000a900460ff1615610cc2576040517f08c379a00000000000000000000000000000000000000000000000000000000081526004018080602001828103825260028152602001807f303500000000000000000000000000000000000000000000000000000000000081525060200191505060405180910390fd5b60011515600360003373ffffffffffffffffffffffffffffffffffffffff1673ffffffffffffffffffffffffffffffffffffffff16815260200190815260200160002060009054906101000a900460ff1615151415610e9e5760046000848152602001908152602001600020600501339080600181540180825580915050600190039060005260206000200160009091909190916101000a81548173ffffffffffffffffffffffffffffffffffffffff021916908373ffffffffffffffffffffffffffffffffffffffff16021790555060008090505b6004600085815260200190815260200160002060040180549050811015610e98573373ffffffffffffffffffffffffffffffffffffffff16600460008681526020019081526020016000206004018281548110610df157fe5b9060005260206000200160009054906101000a900473ffffffffffffffffffffffffffffffffffffffff1673ffffffffffffffffffffffffffffffffffffffff161415610e8b57600460008581526020019081526020016000206004018181548110610e5957fe5b9060005260206000200160006101000a81549073ffffffffffffffffffffffffffffffffffffffff0219169055610e98565b8080600101915050610d98565b5061101d565b60046000848152602001908152602001600020600701339080600181540180825580915050600190039060005260206000200160009091909190916101000a81548173ffffffffffffffffffffffffffffffffffffffff021916908373ffffffffffffffffffffffffffffffffffffffff16021790555060008090505b600460008581526020019081526020016000206006018054905081101561101b573373ffffffffffffffffffffffffffffffffffffffff16600460008681526020019081526020016000206006018281548110610f7457fe5b9060005260206000200160009054906101000a900473ffffffffffffffffffffffffffffffffffffffff1673ffffffffffffffffffffffffffffffffffffffff16141561100e57600460008581526020019081526020016000206006018181548110610fdc57fe5b9060005260206000200160006101000a81549073ffffffffffffffffffffffffffffffffffffffff021916905561101b565b8080600101915050610f1b565b505b60016004600085815260200190815260200160002060080160006101000a81548160ff0219169083151502179055506000601c81819054906101000a900463ffffffff16809291906001900391906101000a81548163ffffffff021916908363ffffffff16021790555050505050565b600360003373ffffffffffffffffffffffffffffffffffffffff1673ffffffffffffffffffffffffffffffffffffffff16815260200190815260200160002060009054906101000a900460ff168061112e5750600260003373ffffffffffffffffffffffffffffffffffffffff1673ffffffffffffffffffffffffffffffffffffffff16815260200190815260200160002060009054906101000a900460ff165b6111a0576040517f08c379a00000000000000000000000000000000000000000000000000000000081526004018080602001828103825260028152602001807f303100000000000000000000000000000000000000000000000000000000000081525060200191505060405180910390fd5b816005600082815260200190815260200160002060009054906101000a900460ff16611234576040517f08c379a00000000000000000000000000000000000000000000000000000000081526004018080602001828103825260028152602001807f303600000000000000000000000000000000000000000000000000000000000081525060200191505060405180910390fd5b6000601c9054906101000a900463ffffffff1663ffffffff16600060189054906101000a900463ffffffff1663ffffffff16116112d9576040517f08c379a00000000000000000000000000000000000000000000000000000000081526004018080602001828103825260028152602001807f303400000000000000000000000000000000000000000000000000000000000081525060200191505060405180910390fd5b848060046000838152602001908152602001600020600001541415611366576040517f08c379a00000000000000000000000000000000000000000000000000000000081526004018080602001828103825260028152602001807f303200000000000000000000000000000000000000000000000000000000000081525060200191505060405180910390fd5b84600081116113dd576040517f08c379a00000000000000000000000000000000000000000000000000000000081526004018080602001828103825260028152602001807f303700000000000000000000000000000000000000000000000000000000000081525060200191505060405180910390fd5b6040518061012001604052808881526020018781526020018681526020018573ffffffffffffffffffffffffffffffffffffffff168152602001600460008a81526020019081526020016000206004018054806020026020016040519081016040528092919081815260200182805480156114ad57602002820191906000526020600020905b8160009054906101000a900473ffffffffffffffffffffffffffffffffffffffff1673ffffffffffffffffffffffffffffffffffffffff1681526020019060010190808311611463575b50505050508152602001600460008a815260200190815260200160002060050180548060200260200160405190810160405280929190818152602001828054801561154d57602002820191906000526020600020905b8160009054906101000a900473ffffffffffffffffffffffffffffffffffffffff1673ffffffffffffffffffffffffffffffffffffffff1681526020019060010190808311611503575b50505050508152602001600460008a81526020019081526020016000206006018054806020026020016040519081016040528092919081815260200182805480156115ed57602002820191906000526020600020905b8160009054906101000a900473ffffffffffffffffffffffffffffffffffffffff1673ffffffffffffffffffffffffffffffffffffffff16815260200190600101908083116115a3575b50505050508152602001600460008a815260200190815260200160002060070180548060200260200160405190810160405280929190818152602001828054801561168d57602002820191906000526020600020905b8160009054906101000a900473ffffffffffffffffffffffffffffffffffffffff1673ffffffffffffffffffffffffffffffffffffffff1681526020019060010190808311611643575b50505050508152602001600015158152506004600089815260200190815260200160002060008201518160000155602082015181600101556040820151816002015560608201518160030160006101000a81548173ffffffffffffffffffffffffffffffffffffffff021916908373ffffffffffffffffffffffffffffffffffffffff1602179055506080820151816004019080519060200190611732929190612322565b5060a082015181600501908051906020019061174f929190612322565b5060c082015181600601908051906020019061176c929190612322565b5060e0820151816007019080519060200190611789929190612322565b506101008201518160080160006101000a81548160ff02191690831515021790555090505060011515600360003373ffffffffffffffffffffffffffffffffffffffff1673ffffffffffffffffffffffffffffffffffffffff16815260200190815260200160002060009054906101000a900460ff16151514156118835760046000888152602001908152602001600020600401339080600181540180825580915050600190039060005260206000200160009091909190916101000a81548173ffffffffffffffffffffffffffffffffffffffff021916908373ffffffffffffffffffffffffffffffffffffffff1602179055506118fb565b60046000888152602001908152602001600020600601339080600181540180825580915050600190039060005260206000200160009091909190916101000a81548173ffffffffffffffffffffffffffffffffffffffff021916908373ffffffffffffffffffffffffffffffffffffffff1602179055505b60018790806001815401808255809150506001900390600052602060002001600090919091909150556000601c81819054906101000a900463ffffffff168092919060010191906101000a81548163ffffffff021916908363ffffffff1602179055505050505050505050565b60026020528060005260406000206000915054906101000a900460ff1681565b600360003373ffffffffffffffffffffffffffffffffffffffff1673ffffffffffffffffffffffffffffffffffffffff16815260200190815260200160002060009054906101000a900460ff1680611a295750600260003373ffffffffffffffffffffffffffffffffffffffff1673ffffffffffffffffffffffffffffffffffffffff16815260200190815260200160002060009054906101000a900460ff165b611a9b576040517f08c379a00000000000000000000000000000000000000000000000000000000081526004018080602001828103825260028152602001807f303100000000000000000000000000000000000000000000000000000000000081525060200191505060405180910390fd5b8080600460008381526020019081526020016000206000015414611b27576040517f08c379a00000000000000000000000000000000000000000000000000000000081526004018080602001828103825260028152602001807f303300000000000000000000000000000000000000000000000000000000000081525060200191505060405180910390fd5b816004600082815260200190815260200160002060080160009054906101000a900460ff1615611bbf576040517f08c379a00000000000000000000000000000000000000000000000000000000081526004018080602001828103825260028152602001807f303500000000000000000000000000000000000000000000000000000000000081525060200191505060405180910390fd5b82600080905060011515600360003373ffffffffffffffffffffffffffffffffffffffff1673ffffffffffffffffffffffffffffffffffffffff16815260200190815260200160002060009054906101000a900460ff1615151415611cdc5760008090505b6004600084815260200190815260200160002060040180549050811015611cda573373ffffffffffffffffffffffffffffffffffffffff16600460008581526020019081526020016000206004018281548110611c7d57fe5b9060005260206000200160009054906101000a900473ffffffffffffffffffffffffffffffffffffffff1673ffffffffffffffffffffffffffffffffffffffff161415611ccd5760019150611cda565b8080600101915050611c24565b505b60011515600260003373ffffffffffffffffffffffffffffffffffffffff1673ffffffffffffffffffffffffffffffffffffffff16815260200190815260200160002060009054906101000a900460ff1615151415611df35760008090505b6004600084815260200190815260200160002060060180549050811015611df1573373ffffffffffffffffffffffffffffffffffffffff16600460008581526020019081526020016000206006018281548110611d9457fe5b9060005260206000200160009054906101000a900473ffffffffffffffffffffffffffffffffffffffff1673ffffffffffffffffffffffffffffffffffffffff161415611de45760019150611df1565b8080600101915050611d3b565b505b6000151581151514611e6d576040517f08c379a00000000000000000000000000000000000000000000000000000000081526004018080602001828103825260028152602001807f303800000000000000000000000000000000000000000000000000000000000081525060200191505060405180910390fd5b60011515600360003373ffffffffffffffffffffffffffffffffffffffff1673ffffffffffffffffffffffffffffffffffffffff16815260200190815260200160002060009054906101000a900460ff1615151415611f425760046000868152602001908152602001600020600401339080600181540180825580915050600190039060005260206000200160009091909190916101000a81548173ffffffffffffffffffffffffffffffffffffffff021916908373ffffffffffffffffffffffffffffffffffffffff160217905550611fba565b60046000868152602001908152602001600020600601339080600181540180825580915050600190039060005260206000200160009091909190916101000a81548173ffffffffffffffffffffffffffffffffffffffff021916908373ffffffffffffffffffffffffffffffffffffffff1602179055505b600060149054906101000a900463ffffffff1663ffffffff1660046000878152602001908152602001600020600401805490501015801561202c5750600060149054906101000a900463ffffffff1663ffffffff16600460008781526020019081526020016000206006018054905010155b1561229b576004600086815260200190815260200160002060030160009054906101000a900473ffffffffffffffffffffffffffffffffffffffff166000806101000a81548173ffffffffffffffffffffffffffffffffffffffff021916908373ffffffffffffffffffffffffffffffffffffffff1602179055507f6d696e74000000000000000000000000000000000000000000000000000000006004600087815260200190815260200160002060020154141561218c576000809054906101000a900473ffffffffffffffffffffffffffffffffffffffff1673ffffffffffffffffffffffffffffffffffffffff1663a0712d6860046000888152602001908152602001600020600101546040518263ffffffff1660e01b815260040180828152602001915050600060405180830381600087803b15801561216f57600080fd5b505af1158015612183573d6000803e3d6000fd5b5050505061222f565b6000809054906101000a900473ffffffffffffffffffffffffffffffffffffffff1673ffffffffffffffffffffffffffffffffffffffff166342966c6860046000888152602001908152602001600020600101546040518263ffffffff1660e01b815260040180828152602001915050600060405180830381600087803b15801561221657600080fd5b505af115801561222a573d6000803e3d6000fd5b505050505b60016004600087815260200190815260200160002060080160006101000a81548160ff0219169083151502179055506000601c81819054906101000a900463ffffffff16809291906001900391906101000a81548163ffffffff021916908363ffffffff160217905550505b5050505050565b6000601c9054906101000a900463ffffffff1681565b604051806101200160405280600080191681526020016000815260200160008019168152602001600073ffffffffffffffffffffffffffffffffffffffff168152602001606081526020016060815260200160608152602001606081526020016000151581525090565b82805482825590600052602060002090810192821561239b579160200282015b8281111561239a5782518260006101000a81548173ffffffffffffffffffffffffffffffffffffffff021916908373ffffffffffffffffffffffffffffffffffffffff16021790555091602001919060010190612342565b5b5090506123a891906123ac565b5090565b6123ec91905b808211156123e857600081816101000a81549073ffffffffffffffffffffffffffffffffffffffff0219169055506001016123b2565b5090565b9056fea26469706673582212208174c49ec3ceda3832986f71d7080df685cbeaf55e1576ad5b188e46750558e564736f6c63430006000033",
  "source": "// SPDX-License-Identifier: MIt\r\npragma solidity >=0.4.22 <0.8.0;\r\nimport \"./InterfaceStablecoin.sol\";\r\n\r\ncontract MinterMultisig {\r\n    struct proposal {\r\n        bytes32 proposalId;\r\n        uint256 amount;\r\n        bytes32 operation;\r\n        address contractAddr;\r\n        address[] opApprovals;\r\n        address[] opRejects;\r\n        address[] ctrlApprovals;\r\n        address[] ctrlRejects;\r\n        bool status;\r\n    }\r\n\r\n    InterfaceStablecoin lc;\r\n    uint32 public limit;\r\n    uint32 public restriction;\r\n    uint32 public openProposals = 0;\r\n    bytes32[] public allProposals;\r\n\r\n    mapping(address => bool) public controllers;\r\n    mapping(address => bool) public operators;\r\n    mapping(bytes32 => proposal) public proposals;\r\n    mapping(bytes32 => bool) public authOps;\r\n\r\n    constructor(\r\n        uint32 _limit,\r\n        uint32 _restriction,\r\n        address[] memory _operators,\r\n        address[] memory _controllers\r\n    ) public {\r\n        for (uint256 i = 0; i < _operators.length; i++) {\r\n            operators[_operators[i]] = true;\r\n        }\r\n\r\n        for (uint256 i = 0; i < _controllers.length; i++) {\r\n            controllers[_controllers[i]] = true;\r\n        }\r\n\r\n        authOps[\"mint\"] = true;\r\n        authOps[\"burn\"] = true;\r\n        limit = _limit;\r\n        restriction = _restriction;\r\n    }\r\n\r\n    /*###\r\n    Verification utils\r\n    ###*/\r\n\r\n    modifier checkSigner() {\r\n        require(operators[msg.sender] || controllers[msg.sender], \"01\");\r\n        _;\r\n    }\r\n\r\n    modifier checkNewProposal(bytes32 _proposalId) {\r\n        require(proposals[_proposalId].proposalId != _proposalId, \"02\");\r\n        _;\r\n    }\r\n\r\n    modifier checkProposal(bytes32 _proposalId) {\r\n        require(proposals[_proposalId].proposalId == _proposalId, \"03\");\r\n        _;\r\n    }\r\n\r\n    modifier checkRestriction() {\r\n        require(restriction > openProposals, \"04\");\r\n        _;\r\n    }\r\n\r\n    modifier checkOpen(bytes32 _proposalId) {\r\n        require(!proposals[_proposalId].status, \"05\");\r\n        _;\r\n    }\r\n\r\n    modifier checkOperation(bytes32 _operation) {\r\n        require(authOps[_operation], \"06\");\r\n        _;\r\n    }\r\n\r\n    modifier checkAmount(uint256 _amount) {\r\n        require(_amount > 0, \"07\");\r\n        _;\r\n    }\r\n\r\n    modifier checkAlreadyAccept(bytes32 _proposalId) {\r\n        bool contains = false;\r\n\r\n        if (operators[msg.sender] == true) {\r\n            // Si c'est un operateur\r\n            // On verifie dans un premier temps si il a deja accept\r\n            for (\r\n                uint256 i = 0;\r\n                i < proposals[_proposalId].opApprovals.length;\r\n                i++\r\n            ) {\r\n                if (proposals[_proposalId].opApprovals[i] == msg.sender) {\r\n                    contains = true;\r\n                    break;\r\n                }\r\n            }\r\n        }\r\n        if (controllers[msg.sender] == true) {\r\n            // Si c'est un controlleur\r\n            // On verifie si il a deja accept\r\n            for (\r\n                uint256 i = 0;\r\n                i < proposals[_proposalId].ctrlApprovals.length;\r\n                i++\r\n            ) {\r\n                if (proposals[_proposalId].ctrlApprovals[i] == msg.sender) {\r\n                    contains = true;\r\n                    break;\r\n                }\r\n            }\r\n        }\r\n\r\n        require(contains == false, \"08\");\r\n        _;\r\n    }\r\n\r\n    /*###\r\n    Main entrypoints\r\n      ###*/\r\n\r\n    function createProposal(\r\n        bytes32 _proposalId,\r\n        uint256 _amount,\r\n        bytes32 _operation,\r\n        address _contractAddr\r\n    )\r\n        public\r\n        checkSigner()\r\n        checkOperation(_operation)\r\n        checkRestriction()\r\n        checkNewProposal(_proposalId)\r\n        checkAmount(_amount)\r\n    {\r\n        proposals[_proposalId] = proposal(\r\n            _proposalId,\r\n            _amount,\r\n            _operation,\r\n            _contractAddr,\r\n            proposals[_proposalId].opApprovals,\r\n            proposals[_proposalId].opRejects,\r\n            proposals[_proposalId].ctrlApprovals,\r\n            proposals[_proposalId].ctrlRejects,\r\n            false\r\n        );\r\n\r\n        if (operators[msg.sender] == true) {\r\n            proposals[_proposalId].opApprovals.push(msg.sender);\r\n        } else {\r\n            proposals[_proposalId].ctrlApprovals.push(msg.sender);\r\n        }\r\n        allProposals.push(_proposalId);\r\n\r\n        openProposals++;\r\n    }\r\n\r\n    function getAllProposalsId() public view returns (bytes32[] memory) {\r\n        return allProposals;\r\n    }\r\n\r\n    function getProposalById(bytes32 index)\r\n        public\r\n        view\r\n        returns (\r\n            bytes32,\r\n            uint256,\r\n            bytes32,\r\n            address,\r\n            address[] memory,\r\n            address[] memory,\r\n            address[] memory,\r\n            address[] memory,\r\n            bool\r\n        )\r\n    {\r\n        proposal memory p = proposals[index];\r\n        return (\r\n            p.proposalId,\r\n            p.amount,\r\n            p.operation,\r\n            p.contractAddr,\r\n            p.opApprovals,\r\n            p.opRejects,\r\n            p.ctrlApprovals,\r\n            p.ctrlRejects,\r\n            p.status\r\n        );\r\n    }\r\n\r\n    function accept(bytes32 _proposalId)\r\n        public\r\n        checkSigner()\r\n        checkProposal(_proposalId)\r\n        checkOpen(_proposalId)\r\n        checkAlreadyAccept(_proposalId)\r\n    {\r\n        if (operators[msg.sender] == true) {\r\n            proposals[_proposalId].opApprovals.push(msg.sender);\r\n        } else {\r\n            // sinon c'est un ctrl\r\n            proposals[_proposalId].ctrlApprovals.push(msg.sender);\r\n        }\r\n\r\n        if (\r\n            proposals[_proposalId].opApprovals.length >= limit &&\r\n            proposals[_proposalId].ctrlApprovals.length >= limit\r\n        ) {\r\n            lc = InterfaceStablecoin(proposals[_proposalId].contractAddr);\r\n            if (proposals[_proposalId].operation == \"mint\") {\r\n                lc.mint(proposals[_proposalId].amount);\r\n            } else {\r\n                lc.burn(proposals[_proposalId].amount);\r\n            }\r\n            proposals[_proposalId].status = true;\r\n            openProposals--;\r\n        }\r\n    }\r\n\r\n    function reject(bytes32 _proposalId)\r\n        public\r\n        checkSigner()\r\n        checkProposal(_proposalId)\r\n        checkOpen(_proposalId)\r\n    {\r\n        if (operators[msg.sender] == true) {\r\n            proposals[_proposalId].opRejects.push(msg.sender);\r\n\r\n            for (\r\n                uint256 i = 0;\r\n                i < proposals[_proposalId].opApprovals.length;\r\n                i++\r\n            ) {\r\n                if (proposals[_proposalId].opApprovals[i] == msg.sender) {\r\n                    delete proposals[_proposalId].opApprovals[i];\r\n                    break;\r\n                }\r\n            }\r\n        } else {\r\n            // sinon c'est un ctrl\r\n            proposals[_proposalId].ctrlRejects.push(msg.sender);\r\n\r\n            for (\r\n                uint256 i = 0;\r\n                i < proposals[_proposalId].ctrlApprovals.length;\r\n                i++\r\n            ) {\r\n                if (proposals[_proposalId].ctrlApprovals[i] == msg.sender) {\r\n                    delete proposals[_proposalId].ctrlApprovals[i];\r\n                    break;\r\n                }\r\n            }\r\n        }\r\n\r\n        proposals[_proposalId].status = true;\r\n        openProposals--;\r\n    }\r\n}\r\n",
  "sourcePath": "C:/Users/Alexandre/Desktop/Cours/PI2_A5/Contrats/eth-stable-coin/stablecoin/contracts/MinterMultisig.sol",
  "compiler": {
    "name": "solc",
    "version": "0.6.0+commit.26b70077.Emscripten.clang"
  },
  "schemaVersion": "3.3.1",
  "updatedAt": "2020-12-21T17:44:57.705Z",
  "networkType": "ethereum",
  "devdoc": {
    "methods": {}
  },
  "userdoc": {
    "methods": {}
  }
}