{
  "contractName": "ReserveMultisig",
  "abi": [
    {
      "inputs": [
        {
          "internalType": "address[]",
          "name": "_signers",
          "type": "address[]"
        },
        {
          "internalType": "uint32",
          "name": "_limit",
          "type": "uint32"
        },
        {
          "internalType": "uint32",
          "name": "_restriction",
          "type": "uint32"
        }
      ],
      "stateMutability": "nonpayable",
      "type": "constructor"
    },
    {
      "anonymous": false,
      "inputs": [
        {
          "indexed": false,
          "internalType": "address",
          "name": "_from",
          "type": "address"
        },
        {
          "indexed": false,
          "internalType": "address",
          "name": "_to",
          "type": "address"
        },
        {
          "indexed": false,
          "internalType": "uint256",
          "name": "_amount",
          "type": "uint256"
        }
      ],
      "name": "Transfer",
      "type": "event"
    },
    {
      "anonymous": false,
      "inputs": [
        {
          "indexed": false,
          "internalType": "bytes32",
          "name": "proposalId",
          "type": "bytes32"
        }
      ],
      "name": "acceptProposal",
      "type": "event"
    },
    {
      "anonymous": false,
      "inputs": [
        {
          "indexed": false,
          "internalType": "bytes32",
          "name": "proposalId",
          "type": "bytes32"
        }
      ],
      "name": "addProposal",
      "type": "event"
    },
    {
      "anonymous": false,
      "inputs": [
        {
          "indexed": false,
          "internalType": "bytes32",
          "name": "proposalId",
          "type": "bytes32"
        }
      ],
      "name": "rejectProposal",
      "type": "event"
    },
    {
      "inputs": [
        {
          "internalType": "uint256",
          "name": "",
          "type": "uint256"
        }
      ],
      "name": "allProposals",
      "outputs": [
        {
          "internalType": "bytes32",
          "name": "",
          "type": "bytes32"
        }
      ],
      "stateMutability": "view",
      "type": "function",
      "constant": true
    },
    {
      "inputs": [],
      "name": "limit",
      "outputs": [
        {
          "internalType": "uint32",
          "name": "",
          "type": "uint32"
        }
      ],
      "stateMutability": "view",
      "type": "function",
      "constant": true
    },
    {
      "inputs": [],
      "name": "openProposals",
      "outputs": [
        {
          "internalType": "uint32",
          "name": "",
          "type": "uint32"
        }
      ],
      "stateMutability": "view",
      "type": "function",
      "constant": true
    },
    {
      "inputs": [
        {
          "internalType": "bytes32",
          "name": "",
          "type": "bytes32"
        }
      ],
      "name": "proposals",
      "outputs": [
        {
          "internalType": "bytes32",
          "name": "proposalId",
          "type": "bytes32"
        },
        {
          "internalType": "address",
          "name": "f",
          "type": "address"
        },
        {
          "internalType": "uint256",
          "name": "amount",
          "type": "uint256"
        },
        {
          "internalType": "address",
          "name": "t",
          "type": "address"
        },
        {
          "internalType": "address",
          "name": "contractAddr",
          "type": "address"
        },
        {
          "internalType": "bool",
          "name": "status",
          "type": "bool"
        }
      ],
      "stateMutability": "view",
      "type": "function",
      "constant": true
    },
    {
      "inputs": [],
      "name": "restriction",
      "outputs": [
        {
          "internalType": "uint32",
          "name": "",
          "type": "uint32"
        }
      ],
      "stateMutability": "view",
      "type": "function",
      "constant": true
    },
    {
      "inputs": [
        {
          "internalType": "address",
          "name": "",
          "type": "address"
        }
      ],
      "name": "signers",
      "outputs": [
        {
          "internalType": "bool",
          "name": "",
          "type": "bool"
        }
      ],
      "stateMutability": "view",
      "type": "function",
      "constant": true
    },
    {
      "inputs": [
        {
          "internalType": "uint256",
          "name": "_amount",
          "type": "uint256"
        },
        {
          "internalType": "address",
          "name": "_contractAddr",
          "type": "address"
        },
        {
          "internalType": "address",
          "name": "_f",
          "type": "address"
        },
        {
          "internalType": "bytes32",
          "name": "_proposalId",
          "type": "bytes32"
        },
        {
          "internalType": "address",
          "name": "_t",
          "type": "address"
        }
      ],
      "name": "createProposal",
      "outputs": [],
      "stateMutability": "nonpayable",
      "type": "function"
    },
    {
      "inputs": [],
      "name": "getAllProposalsId",
      "outputs": [
        {
          "internalType": "bytes32[]",
          "name": "",
          "type": "bytes32[]"
        }
      ],
      "stateMutability": "view",
      "type": "function",
      "constant": true
    },
    {
      "inputs": [
        {
          "internalType": "bytes32",
          "name": "index",
          "type": "bytes32"
        }
      ],
      "name": "getProposalById",
      "outputs": [
        {
          "internalType": "bytes32",
          "name": "",
          "type": "bytes32"
        },
        {
          "internalType": "address",
          "name": "",
          "type": "address"
        },
        {
          "internalType": "uint256",
          "name": "",
          "type": "uint256"
        },
        {
          "internalType": "address",
          "name": "",
          "type": "address"
        },
        {
          "internalType": "address",
          "name": "",
          "type": "address"
        },
        {
          "internalType": "bool",
          "name": "",
          "type": "bool"
        },
        {
          "internalType": "address[]",
          "name": "",
          "type": "address[]"
        },
        {
          "internalType": "address[]",
          "name": "",
          "type": "address[]"
        }
      ],
      "stateMutability": "view",
      "type": "function",
      "constant": true
    },
    {
      "inputs": [
        {
          "internalType": "bytes32",
          "name": "_proposalId",
          "type": "bytes32"
        }
      ],
      "name": "accept",
      "outputs": [],
      "stateMutability": "nonpayable",
      "type": "function"
    },
    {
      "inputs": [
        {
          "internalType": "bytes32",
          "name": "_proposalId",
          "type": "bytes32"
        }
      ],
      "name": "reject",
      "outputs": [],
      "stateMutability": "nonpayable",
      "type": "function"
    },
    {
      "inputs": [
        {
          "internalType": "bytes32",
          "name": "_proposalId",
          "type": "bytes32"
        }
      ],
      "name": "_transfer",
      "outputs": [],
      "stateMutability": "nonpayable",
      "type": "function"
    }
  ],
  "bytecode": "0x60806040526000600460086101000a81548163ffffffff021916908363ffffffff1602179055503480156200003357600080fd5b5060405162001fb138038062001fb1833981810160405260608110156200005957600080fd5b81019080805160405193929190846401000000008211156200007a57600080fd5b838201915060208201858111156200009157600080fd5b8251866020820283011164010000000082111715620000af57600080fd5b8083526020830192505050908051906020019060200280838360005b83811015620000e8578082015181840152602081019050620000cb565b50505050905001604052602001805190602001909291908051906020019092919050505060008090505b8351811015620001955760018060008684815181106200012e57fe5b602002602001015173ffffffffffffffffffffffffffffffffffffffff1673ffffffffffffffffffffffffffffffffffffffff16815260200190815260200160002060006101000a81548160ff021916908315150217905550808060010191505062000112565b5081600460006101000a81548163ffffffff021916908363ffffffff160217905550806004806101000a81548163ffffffff021916908363ffffffff160217905550505050611dc780620001ea6000396000f3fe608060405234801561001057600080fd5b50600436106100b45760003560e01c8063a4d66daf11610071578063a4d66daf1461044e578063bb8c5e4914610478578063cabd734f146104a2578063d86a9e57146104d0578063e4725ba114610568578063f438dcd814610596576100b4565b8063109ded1e146100b957806332ed5b1214610236578063736c0d5b14610323578063938351b81461037f578063945fba75146103c157806399a1d8db146103ef575b600080fd5b6100e5600480360360208110156100cf57600080fd5b81019080803590602001909291905050506105c0565b604051808981526020018873ffffffffffffffffffffffffffffffffffffffff1673ffffffffffffffffffffffffffffffffffffffff1681526020018781526020018673ffffffffffffffffffffffffffffffffffffffff1673ffffffffffffffffffffffffffffffffffffffff1681526020018573ffffffffffffffffffffffffffffffffffffffff1673ffffffffffffffffffffffffffffffffffffffff168152602001841515151581526020018060200180602001838103835285818151815260200191508051906020019060200280838360005b838110156101d85780820151818401526020810190506101bd565b50505050905001838103825284818151815260200191508051906020019060200280838360005b8381101561021a5780820151818401526020810190506101ff565b505050509050019a505050505050505050505060405180910390f35b6102626004803603602081101561024c57600080fd5b810190808035906020019092919050505061088c565b604051808781526020018673ffffffffffffffffffffffffffffffffffffffff1673ffffffffffffffffffffffffffffffffffffffff1681526020018581526020018473ffffffffffffffffffffffffffffffffffffffff1673ffffffffffffffffffffffffffffffffffffffff1681526020018373ffffffffffffffffffffffffffffffffffffffff1673ffffffffffffffffffffffffffffffffffffffff16815260200182151515158152602001965050505050505060405180910390f35b6103656004803603602081101561033957600080fd5b81019080803573ffffffffffffffffffffffffffffffffffffffff169060200190929190505050610935565b604051808215151515815260200191505060405180910390f35b6103ab6004803603602081101561039557600080fd5b8101908080359060200190929190505050610955565b6040518082815260200191505060405180910390f35b6103ed600480360360208110156103d757600080fd5b8101908080359060200190929190505050610976565b005b6103f7610c86565b6040518080602001828103825283818151815260200191508051906020019060200280838360005b8381101561043a57808201518184015260208101905061041f565b505050509050019250505060405180910390f35b610456610cde565b604051808263ffffffff1663ffffffff16815260200191505060405180910390f35b610480610cf4565b604051808263ffffffff1663ffffffff16815260200191505060405180910390f35b6104ce600480360360208110156104b857600080fd5b8101908080359060200190929190505050610d09565b005b610566600480360360a08110156104e657600080fd5b8101908080359060200190929190803573ffffffffffffffffffffffffffffffffffffffff169060200190929190803573ffffffffffffffffffffffffffffffffffffffff16906020019092919080359060200190929190803573ffffffffffffffffffffffffffffffffffffffff169060200190929190505050611111565b005b6105946004803603602081101561057e57600080fd5b810190808035906020019092919050505061179f565b005b61059e611c22565b604051808263ffffffff1663ffffffff16815260200191505060405180910390f35b6000806000806000806060806105d4611c38565b600260008b815260200190815260200160002060405180610100016040529081600082015481526020016001820160009054906101000a900473ffffffffffffffffffffffffffffffffffffffff1673ffffffffffffffffffffffffffffffffffffffff1673ffffffffffffffffffffffffffffffffffffffff168152602001600282015481526020016003820160009054906101000a900473ffffffffffffffffffffffffffffffffffffffff1673ffffffffffffffffffffffffffffffffffffffff1673ffffffffffffffffffffffffffffffffffffffff1681526020016004820160009054906101000a900473ffffffffffffffffffffffffffffffffffffffff1673ffffffffffffffffffffffffffffffffffffffff1673ffffffffffffffffffffffffffffffffffffffff1681526020016005820180548060200260200160405190810160405280929190818152602001828054801561078e57602002820191906000526020600020905b8160009054906101000a900473ffffffffffffffffffffffffffffffffffffffff1673ffffffffffffffffffffffffffffffffffffffff1681526020019060010190808311610744575b505050505081526020016006820180548060200260200160405190810160405280929190818152602001828054801561081c57602002820191906000526020600020905b8160009054906101000a900473ffffffffffffffffffffffffffffffffffffffff1673ffffffffffffffffffffffffffffffffffffffff16815260200190600101908083116107d2575b505050505081526020016007820160009054906101000a900460ff1615151515815250509050806000015181602001518260400151836060015184608001518560e001518660a001518760c001518191508090509850985098509850985098509850985050919395975091939597565b60026020528060005260406000206000915090508060000154908060010160009054906101000a900473ffffffffffffffffffffffffffffffffffffffff16908060020154908060030160009054906101000a900473ffffffffffffffffffffffffffffffffffffffff16908060040160009054906101000a900473ffffffffffffffffffffffffffffffffffffffff16908060070160009054906101000a900460ff16905086565b60016020528060005260406000206000915054906101000a900460ff1681565b6003818154811061096257fe5b906000526020600020016000915090505481565b6002600082815260200190815260200160002060040160009054906101000a900473ffffffffffffffffffffffffffffffffffffffff166000806101000a81548173ffffffffffffffffffffffffffffffffffffffff021916908373ffffffffffffffffffffffffffffffffffffffff1602179055506000809054906101000a900473ffffffffffffffffffffffffffffffffffffffff1673ffffffffffffffffffffffffffffffffffffffff1663ccb570e360026000848152602001908152602001600020600201546002600085815260200190815260200160002060010160009054906101000a900473ffffffffffffffffffffffffffffffffffffffff166002600086815260200190815260200160002060030160009054906101000a900473ffffffffffffffffffffffffffffffffffffffff166040518463ffffffff1660e01b8152600401808481526020018373ffffffffffffffffffffffffffffffffffffffff1673ffffffffffffffffffffffffffffffffffffffff1681526020018273ffffffffffffffffffffffffffffffffffffffff1673ffffffffffffffffffffffffffffffffffffffff1681526020019350505050600060405180830381600087803b158015610b4a57600080fd5b505af1158015610b5e573d6000803e3d6000fd5b505050507fddf252ad1be2c89b69c2b068fc378daa952ba7f163c4a11628f55a4df523b3ef6002600083815260200190815260200160002060010160009054906101000a900473ffffffffffffffffffffffffffffffffffffffff166002600084815260200190815260200160002060030160009054906101000a900473ffffffffffffffffffffffffffffffffffffffff166002600085815260200190815260200160002060020154604051808473ffffffffffffffffffffffffffffffffffffffff1673ffffffffffffffffffffffffffffffffffffffff1681526020018373ffffffffffffffffffffffffffffffffffffffff1673ffffffffffffffffffffffffffffffffffffffff168152602001828152602001935050505060405180910390a150565b60606003805480602002602001604051908101604052809291908181526020018280548015610cd457602002820191906000526020600020905b815481526020019060010190808311610cc0575b5050505050905090565b600460009054906101000a900463ffffffff1681565b6004809054906101000a900463ffffffff1681565b600160003373ffffffffffffffffffffffffffffffffffffffff1673ffffffffffffffffffffffffffffffffffffffff16815260200190815260200160002060009054906101000a900460ff16610dc8576040517f08c379a00000000000000000000000000000000000000000000000000000000081526004018080602001828103825260028152602001807f303100000000000000000000000000000000000000000000000000000000000081525060200191505060405180910390fd5b8080600260008381526020019081526020016000206000015414610e54576040517f08c379a00000000000000000000000000000000000000000000000000000000081526004018080602001828103825260028152602001807f303300000000000000000000000000000000000000000000000000000000000081525060200191505060405180910390fd5b816002600082815260200190815260200160002060070160009054906101000a900460ff1615610eec576040517f08c379a00000000000000000000000000000000000000000000000000000000081526004018080602001828103825260028152602001807f303500000000000000000000000000000000000000000000000000000000000081525060200191505060405180910390fd5b60026000848152602001908152602001600020600601339080600181540180825580915050600190039060005260206000200160009091909190916101000a81548173ffffffffffffffffffffffffffffffffffffffff021916908373ffffffffffffffffffffffffffffffffffffffff16021790555060008090505b6002600085815260200190815260200160002060050180549050811015611069573373ffffffffffffffffffffffffffffffffffffffff16600260008681526020019081526020016000206005018281548110610fc257fe5b9060005260206000200160009054906101000a900473ffffffffffffffffffffffffffffffffffffffff1673ffffffffffffffffffffffffffffffffffffffff16141561105c5760026000858152602001908152602001600020600501818154811061102a57fe5b9060005260206000200160006101000a81549073ffffffffffffffffffffffffffffffffffffffff0219169055611069565b8080600101915050610f69565b5060016002600085815260200190815260200160002060070160006101000a81548160ff0219169083151502179055506004600881819054906101000a900463ffffffff16809291906001900391906101000a81548163ffffffff021916908363ffffffff160217905550507f11ab31ede7589a6869d398c8451ed40cb8b2155a5e48ffbcf754fc2fa8d597b0836040518082815260200191505060405180910390a1505050565b600160003373ffffffffffffffffffffffffffffffffffffffff1673ffffffffffffffffffffffffffffffffffffffff16815260200190815260200160002060009054906101000a900460ff166111d0576040517f08c379a00000000000000000000000000000000000000000000000000000000081526004018080602001828103825260028152602001807f303100000000000000000000000000000000000000000000000000000000000081525060200191505060405180910390fd5b600460089054906101000a900463ffffffff1663ffffffff166004809054906101000a900463ffffffff1663ffffffff1611611274576040517f08c379a00000000000000000000000000000000000000000000000000000000081526004018080602001828103825260028152602001807f303400000000000000000000000000000000000000000000000000000000000081525060200191505060405180910390fd5b84600081116112eb576040517f08c379a00000000000000000000000000000000000000000000000000000000081526004018080602001828103825260028152602001807f303600000000000000000000000000000000000000000000000000000000000081525060200191505060405180910390fd5b828060026000838152602001908152602001600020600001541415611378576040517f08c379a00000000000000000000000000000000000000000000000000000000081526004018080602001828103825260028152602001807f303200000000000000000000000000000000000000000000000000000000000081525060200191505060405180910390fd5b6040518061010001604052808581526020018673ffffffffffffffffffffffffffffffffffffffff1681526020018881526020018473ffffffffffffffffffffffffffffffffffffffff1681526020018773ffffffffffffffffffffffffffffffffffffffff1681526020016002600087815260200190815260200160002060050180548060200260200160405190810160405280929190818152602001828054801561147a57602002820191906000526020600020905b8160009054906101000a900473ffffffffffffffffffffffffffffffffffffffff1673ffffffffffffffffffffffffffffffffffffffff1681526020019060010190808311611430575b505050505081526020016002600087815260200190815260200160002060060180548060200260200160405190810160405280929190818152602001828054801561151a57602002820191906000526020600020905b8160009054906101000a900473ffffffffffffffffffffffffffffffffffffffff1673ffffffffffffffffffffffffffffffffffffffff16815260200190600101908083116114d0575b5050505050815260200160001515815250600260008681526020019081526020016000206000820151816000015560208201518160010160006101000a81548173ffffffffffffffffffffffffffffffffffffffff021916908373ffffffffffffffffffffffffffffffffffffffff1602179055506040820151816002015560608201518160030160006101000a81548173ffffffffffffffffffffffffffffffffffffffff021916908373ffffffffffffffffffffffffffffffffffffffff16021790555060808201518160040160006101000a81548173ffffffffffffffffffffffffffffffffffffffff021916908373ffffffffffffffffffffffffffffffffffffffff16021790555060a0820151816005019080519060200190611643929190611cc4565b5060c0820151816006019080519060200190611660929190611cc4565b5060e08201518160070160006101000a81548160ff02191690831515021790555090505060026000858152602001908152602001600020600501339080600181540180825580915050600190039060005260206000200160009091909190916101000a81548173ffffffffffffffffffffffffffffffffffffffff021916908373ffffffffffffffffffffffffffffffffffffffff16021790555060038490806001815401808255809150506001900390600052602060002001600090919091909150556004600881819054906101000a900463ffffffff168092919060010191906101000a81548163ffffffff021916908363ffffffff160217905550507f06efe3b09bcc19be760f8a5fa8362a04fe954317fa37f5ea3e91e58b839fa7b3846040518082815260200191505060405180910390a150505050505050565b600160003373ffffffffffffffffffffffffffffffffffffffff1673ffffffffffffffffffffffffffffffffffffffff16815260200190815260200160002060009054906101000a900460ff1661185e576040517f08c379a00000000000000000000000000000000000000000000000000000000081526004018080602001828103825260028152602001807f303100000000000000000000000000000000000000000000000000000000000081525060200191505060405180910390fd5b80806002600083815260200190815260200160002060000154146118ea576040517f08c379a00000000000000000000000000000000000000000000000000000000081526004018080602001828103825260028152602001807f303300000000000000000000000000000000000000000000000000000000000081525060200191505060405180910390fd5b816002600082815260200190815260200160002060070160009054906101000a900460ff1615611982576040517f08c379a00000000000000000000000000000000000000000000000000000000081526004018080602001828103825260028152602001807f303500000000000000000000000000000000000000000000000000000000000081525060200191505060405180910390fd5b82600080905060008090505b6002600084815260200190815260200160002060050180549050811015611a44573373ffffffffffffffffffffffffffffffffffffffff166002600085815260200190815260200160002060050182815481106119e757fe5b9060005260206000200160009054906101000a900473ffffffffffffffffffffffffffffffffffffffff1673ffffffffffffffffffffffffffffffffffffffff161415611a375760019150611a44565b808060010191505061198e565b506000151581151514611abf576040517f08c379a00000000000000000000000000000000000000000000000000000000081526004018080602001828103825260028152602001807f303700000000000000000000000000000000000000000000000000000000000081525060200191505060405180910390fd5b60026000868152602001908152602001600020600501339080600181540180825580915050600190039060005260206000200160009091909190916101000a81548173ffffffffffffffffffffffffffffffffffffffff021916908373ffffffffffffffffffffffffffffffffffffffff160217905550600460009054906101000a900463ffffffff1663ffffffff1660026000878152602001908152602001600020600501805490501415611be457611b7885610976565b60016002600087815260200190815260200160002060070160006101000a81548160ff0219169083151502179055506004600881819054906101000a900463ffffffff16809291906001900391906101000a81548163ffffffff021916908363ffffffff160217905550505b7f9d079b18d4d4221cde3b8ab9c625437c24b4efeb6aa966af5d3216495e776a5a856040518082815260200191505060405180910390a15050505050565b600460089054906101000a900463ffffffff1681565b60405180610100016040528060008019168152602001600073ffffffffffffffffffffffffffffffffffffffff16815260200160008152602001600073ffffffffffffffffffffffffffffffffffffffff168152602001600073ffffffffffffffffffffffffffffffffffffffff16815260200160608152602001606081526020016000151581525090565b828054828255906000526020600020908101928215611d3d579160200282015b82811115611d3c5782518260006101000a81548173ffffffffffffffffffffffffffffffffffffffff021916908373ffffffffffffffffffffffffffffffffffffffff16021790555091602001919060010190611ce4565b5b509050611d4a9190611d4e565b5090565b611d8e91905b80821115611d8a57600081816101000a81549073ffffffffffffffffffffffffffffffffffffffff021916905550600101611d54565b5090565b9056fea26469706673582212208dcc4f40884a49ea292d1836eb2b03d27be369fd202c42a41adaf5dc46774abb64736f6c63430006000033",
  "source": "// SPDX-License-Identifier: MIt\r\npragma solidity >=0.4.22 <0.8.0;\r\nimport \"./InterfaceStablecoin.sol\";\r\n\r\n// import 'lugh_coin.sol'; -> We will probably need to import lugh_coin contract to do a proper call of transfer function\r\n// And create an interface : contract Interface {function transfer(...) external}\r\n//Bytes32 instead string cause not dynamicall data -> better performance and less gaz fee\r\ncontract ReserveMultisig {\r\n    InterfaceStablecoin lc;\r\n    struct proposal {\r\n        bytes32 proposalId;\r\n        address f;\r\n        uint256 amount;\r\n        address t;\r\n        address contractAddr;\r\n        address[] approvals;\r\n        address[] rejects;\r\n        bool status;\r\n    }\r\n\r\n    mapping(address => bool) public signers;\r\n    mapping(bytes32 => proposal) public proposals;\r\n    bytes32[] public allProposals;\r\n    uint32 public limit;\r\n    uint32 public restriction;\r\n    uint32 public openProposals = 0;\r\n\r\n    event addProposal(bytes32 proposalId);\r\n    event acceptProposal(bytes32 proposalId);\r\n    event rejectProposal(bytes32 proposalId);\r\n    event Transfer(address _from, address _to, uint256 _amount);\r\n\r\n    constructor(\r\n        address[] memory _signers,\r\n        uint32 _limit,\r\n        uint32 _restriction\r\n    ) public {\r\n        for (uint256 i = 0; i < _signers.length; i++) {\r\n            signers[_signers[i]] = true;\r\n        }\r\n        limit = _limit;\r\n        restriction = _restriction;\r\n    }\r\n\r\n    /*###\r\n    Verification utils\r\n      ###*/\r\n\r\n    modifier checkSigner() {\r\n        require(signers[msg.sender], \"01\");\r\n        _;\r\n    }\r\n\r\n    modifier checkNewProposal(bytes32 _proposalId) {\r\n        require(proposals[_proposalId].proposalId != _proposalId, \"02\");\r\n        _;\r\n    }\r\n\r\n    modifier checkProposal(bytes32 _proposalId) {\r\n        require(proposals[_proposalId].proposalId == _proposalId, \"03\");\r\n        _;\r\n    }\r\n\r\n    modifier checkRestriction() {\r\n        require(restriction > openProposals, \"04\");\r\n        _;\r\n    }\r\n\r\n    modifier checkOpen(bytes32 _proposalId) {\r\n        require(!proposals[_proposalId].status, \"05\");\r\n        _;\r\n    }\r\n\r\n    modifier checkAmount(uint256 _amount) {\r\n        require(_amount > 0, \"06\");\r\n        _;\r\n    }\r\n\r\n    modifier checkAlreadyAccept(bytes32 _proposalId) {\r\n        bool contains = false;\r\n        for (uint256 i = 0; i < proposals[_proposalId].approvals.length; i++) {\r\n            if (proposals[_proposalId].approvals[i] == msg.sender) {\r\n                contains = true;\r\n                break;\r\n            }\r\n        }\r\n        require(contains == false, \"07\");\r\n        _;\r\n    }\r\n\r\n    function createProposal(\r\n        uint256 _amount,\r\n        address _contractAddr,\r\n        address _f,\r\n        bytes32 _proposalId,\r\n        address _t\r\n    )\r\n        public\r\n        checkSigner\r\n        checkRestriction\r\n        checkAmount(_amount)\r\n        checkNewProposal(_proposalId)\r\n    {\r\n        proposals[_proposalId] = proposal(\r\n            _proposalId,\r\n            _f,\r\n            _amount,\r\n            _t,\r\n            _contractAddr,\r\n            proposals[_proposalId].approvals,\r\n            proposals[_proposalId].rejects,\r\n            false\r\n        );\r\n        proposals[_proposalId].approvals.push(msg.sender);\r\n        allProposals.push(_proposalId);\r\n        openProposals++;\r\n        emit addProposal(_proposalId);\r\n    }\r\n\r\n    function getAllProposalsId() public view returns (bytes32[] memory) {\r\n        return allProposals;\r\n    }\r\n\r\n    function getProposalById(bytes32 index)\r\n        public\r\n        view\r\n        returns (\r\n            bytes32,\r\n            address,\r\n            uint256,\r\n            address,\r\n            address,\r\n            bool,\r\n            address[] memory,\r\n            address[] memory\r\n        )\r\n    {\r\n        proposal memory p = proposals[index];\r\n        return (\r\n            p.proposalId,\r\n            p.f,\r\n            p.amount,\r\n            p.t,\r\n            p.contractAddr,\r\n            p.status,\r\n            p.approvals,\r\n            p.rejects\r\n        );\r\n    }\r\n\r\n    function accept(bytes32 _proposalId)\r\n        public\r\n        checkSigner\r\n        checkProposal(_proposalId)\r\n        checkOpen(_proposalId)\r\n        checkAlreadyAccept(_proposalId)\r\n    {\r\n        proposals[_proposalId].approvals.push(msg.sender);\r\n        if (proposals[_proposalId].approvals.length == limit) {\r\n            _transfer(_proposalId);\r\n            proposals[_proposalId].status = true;\r\n            openProposals--;\r\n        }\r\n        emit acceptProposal(_proposalId);\r\n    }\r\n\r\n    function reject(bytes32 _proposalId)\r\n        public\r\n        checkSigner\r\n        checkProposal(_proposalId)\r\n        checkOpen(_proposalId)\r\n    {\r\n        proposals[_proposalId].rejects.push(msg.sender);\r\n        for (uint256 i = 0; i < proposals[_proposalId].approvals.length; i++) {\r\n            if (proposals[_proposalId].approvals[i] == msg.sender) {\r\n                delete proposals[_proposalId].approvals[i]; //Delete l'lment  la position i, laissera un vide mais serait plus couteux en gaz de rindexer la liste\r\n                break;\r\n            }\r\n        }\r\n        proposals[_proposalId].status = true;\r\n        openProposals--;\r\n        emit rejectProposal(_proposalId);\r\n    }\r\n\r\n    /*\r\n    Lugh coin transfer\r\n    */\r\n    function _transfer(bytes32 _proposalId) public {\r\n        lc = InterfaceStablecoin(proposals[_proposalId].contractAddr);\r\n        lc.transfer(\r\n            proposals[_proposalId].amount,\r\n            proposals[_proposalId].f,\r\n            proposals[_proposalId].t\r\n        );\r\n        emit Transfer(\r\n            proposals[_proposalId].f,\r\n            proposals[_proposalId].t,\r\n            proposals[_proposalId].amount\r\n        );\r\n    }\r\n}\r\n",
  "sourcePath": "C:/Users/Alexandre/Desktop/Cours/PI2_A5/Contrats/eth-stable-coin/stablecoin/contracts/ReserveMultisig.sol",
  "compiler": {
    "name": "solc",
    "version": "0.6.0+commit.26b70077.Emscripten.clang"
  },
  "schemaVersion": "3.3.1",
  "updatedAt": "2020-12-21T17:46:27.214Z",
  "networkType": "ethereum",
  "devdoc": {
    "methods": {}
  },
  "userdoc": {
    "methods": {}
  }
}