{
  "contractName": "InterfaceStablecoin",
  "abi": [
    {
      "inputs": [
        {
          "internalType": "address",
          "name": "_address",
          "type": "address"
        },
        {
          "internalType": "bool",
          "name": "_whiteListed",
          "type": "bool"
        }
      ],
      "name": "setWhitelist",
      "outputs": [],
      "stateMutability": "nonpayable",
      "type": "function"
    },
    {
      "inputs": [
        {
          "internalType": "address",
          "name": "_address",
          "type": "address"
        },
        {
          "internalType": "bool",
          "name": "_lock",
          "type": "bool"
        }
      ],
      "name": "setLock",
      "outputs": [],
      "stateMutability": "nonpayable",
      "type": "function"
    },
    {
      "inputs": [
        {
          "internalType": "bool",
          "name": "_pause",
          "type": "bool"
        }
      ],
      "name": "setPause",
      "outputs": [],
      "stateMutability": "nonpayable",
      "type": "function"
    },
    {
      "inputs": [
        {
          "internalType": "address",
          "name": "_newMinter",
          "type": "address"
        }
      ],
      "name": "setMinter",
      "outputs": [],
      "stateMutability": "nonpayable",
      "type": "function"
    },
    {
      "inputs": [
        {
          "internalType": "address",
          "name": "_newReserve",
          "type": "address"
        }
      ],
      "name": "setReserve",
      "outputs": [],
      "stateMutability": "nonpayable",
      "type": "function"
    },
    {
      "inputs": [
        {
          "internalType": "address",
          "name": "_newAdministrator",
          "type": "address"
        }
      ],
      "name": "setAdministrator",
      "outputs": [],
      "stateMutability": "nonpayable",
      "type": "function"
    },
    {
      "inputs": [
        {
          "internalType": "uint256",
          "name": "_amount",
          "type": "uint256"
        },
        {
          "internalType": "address",
          "name": "_from",
          "type": "address"
        },
        {
          "internalType": "address",
          "name": "_to",
          "type": "address"
        }
      ],
      "name": "transfer",
      "outputs": [],
      "stateMutability": "nonpayable",
      "type": "function"
    },
    {
      "inputs": [
        {
          "internalType": "uint256",
          "name": "_amount",
          "type": "uint256"
        }
      ],
      "name": "mint",
      "outputs": [],
      "stateMutability": "nonpayable",
      "type": "function"
    },
    {
      "inputs": [
        {
          "internalType": "uint256",
          "name": "_amount",
          "type": "uint256"
        }
      ],
      "name": "burn",
      "outputs": [],
      "stateMutability": "nonpayable",
      "type": "function"
    }
  ],
  "bytecode": "0x608060405234801561001057600080fd5b50610353806100206000396000f3fe608060405234801561001057600080fd5b50600436106100935760003560e01c8063b03c4b3311610066578063b03c4b3314610188578063bedb86fb146101d8578063ccb570e314610208578063df8089ef14610276578063fca3b5aa146102ba57610093565b806342966c681461009857806353d6fd59146100c65780639cecc80a14610116578063a0712d681461015a575b600080fd5b6100c4600480360360208110156100ae57600080fd5b81019080803590602001909291905050506102fe565b005b610114600480360360408110156100dc57600080fd5b81019080803573ffffffffffffffffffffffffffffffffffffffff169060200190929190803515159060200190929190505050610301565b005b6101586004803603602081101561012c57600080fd5b81019080803573ffffffffffffffffffffffffffffffffffffffff169060200190929190505050610305565b005b6101866004803603602081101561017057600080fd5b8101908080359060200190929190505050610308565b005b6101d66004803603604081101561019e57600080fd5b81019080803573ffffffffffffffffffffffffffffffffffffffff16906020019092919080351515906020019092919050505061030b565b005b610206600480360360208110156101ee57600080fd5b8101908080351515906020019092919050505061030f565b005b6102746004803603606081101561021e57600080fd5b8101908080359060200190929190803573ffffffffffffffffffffffffffffffffffffffff169060200190929190803573ffffffffffffffffffffffffffffffffffffffff169060200190929190505050610312565b005b6102b86004803603602081101561028c57600080fd5b81019080803573ffffffffffffffffffffffffffffffffffffffff169060200190929190505050610317565b005b6102fc600480360360208110156102d057600080fd5b81019080803573ffffffffffffffffffffffffffffffffffffffff16906020019092919050505061031a565b005b50565b5050565b50565b50565b5050565b50565b505050565b50565b5056fea2646970667358221220fed2a01d91ddb22fc439b498b76b74b3c8cc93536cd9a86c693c683e85a5e22064736f6c63430006000033",
  "source": "// SPDX-License-Identifier: MIt\r\npragma solidity >=0.4.22 <0.8.0;\r\n\r\ncontract InterfaceStablecoin {\r\n    function setWhitelist(address _address, bool _whiteListed) public {}\r\n\r\n    function setLock(address _address, bool _lock) public {}\r\n\r\n    function setPause(bool _pause) public {}\r\n\r\n    function setMinter(address _newMinter) public {}\r\n\r\n    function setReserve(address _newReserve) public {}\r\n\r\n    function setAdministrator(address _newAdministrator) public {}\r\n\r\n    function transfer(\r\n        uint256 _amount,\r\n        address _from,\r\n        address _to\r\n    ) public {}\r\n\r\n    function mint(uint256 _amount) public {}\r\n\r\n    function burn(uint256 _amount) public {}\r\n}\r\n",
  "sourcePath": "C:\\Users\\Alexandre\\Desktop\\Cours\\PI2_A5\\Contrats\\eth-stable-coin\\stablecoin\\contracts\\InterfaceStablecoin.sol",
  "compiler": {
    "name": "solc",
    "version": "0.6.0+commit.26b70077.Emscripten.clang"
  },
  "schemaVersion": "3.3.1",
  "updatedAt": "2020-12-21T17:49:05.055Z",
  "devdoc": {
    "methods": {}
  },
  "userdoc": {
    "methods": {}
  }
}