{
  "contractName": "OwnerMultisig",
  "abi": [
    {
      "inputs": [
        {
          "internalType": "address[]",
          "name": "_signers",
          "type": "address[]"
        },
        {
          "internalType": "uint256",
          "name": "_limit",
          "type": "uint256"
        },
        {
          "internalType": "uint256",
          "name": "_restriction",
          "type": "uint256"
        }
      ],
      "stateMutability": "nonpayable",
      "type": "constructor"
    },
    {
      "anonymous": false,
      "inputs": [
        {
          "indexed": false,
          "internalType": "address",
          "name": "signer",
          "type": "address"
        }
      ],
      "name": "signedBy",
      "type": "event"
    },
    {
      "anonymous": false,
      "inputs": [
        {
          "indexed": false,
          "internalType": "address",
          "name": "_from",
          "type": "address"
        }
      ],
      "name": "testSigners",
      "type": "event"
    },
    {
      "inputs": [
        {
          "internalType": "bytes32",
          "name": "",
          "type": "bytes32"
        }
      ],
      "name": "AuthOps",
      "outputs": [
        {
          "internalType": "bool",
          "name": "",
          "type": "bool"
        }
      ],
      "stateMutability": "view",
      "type": "function",
      "constant": true
    },
    {
      "inputs": [
        {
          "internalType": "bytes32",
          "name": "",
          "type": "bytes32"
        }
      ],
      "name": "Proposals",
      "outputs": [
        {
          "internalType": "bytes32",
          "name": "proposalId",
          "type": "bytes32"
        },
        {
          "internalType": "address",
          "name": "_proposalAddr",
          "type": "address"
        },
        {
          "internalType": "bytes32",
          "name": "operation",
          "type": "bytes32"
        },
        {
          "internalType": "address",
          "name": "contractAddr",
          "type": "address"
        },
        {
          "internalType": "bool",
          "name": "status",
          "type": "bool"
        }
      ],
      "stateMutability": "view",
      "type": "function",
      "constant": true
    },
    {
      "inputs": [
        {
          "internalType": "address",
          "name": "",
          "type": "address"
        }
      ],
      "name": "Signers",
      "outputs": [
        {
          "internalType": "bool",
          "name": "",
          "type": "bool"
        }
      ],
      "stateMutability": "view",
      "type": "function",
      "constant": true
    },
    {
      "inputs": [
        {
          "internalType": "uint256",
          "name": "",
          "type": "uint256"
        }
      ],
      "name": "allProposals",
      "outputs": [
        {
          "internalType": "bytes32",
          "name": "",
          "type": "bytes32"
        }
      ],
      "stateMutability": "view",
      "type": "function",
      "constant": true
    },
    {
      "inputs": [],
      "name": "limit",
      "outputs": [
        {
          "internalType": "uint256",
          "name": "",
          "type": "uint256"
        }
      ],
      "stateMutability": "view",
      "type": "function",
      "constant": true
    },
    {
      "inputs": [],
      "name": "openProposals",
      "outputs": [
        {
          "internalType": "uint256",
          "name": "",
          "type": "uint256"
        }
      ],
      "stateMutability": "view",
      "type": "function",
      "constant": true
    },
    {
      "inputs": [],
      "name": "restriction",
      "outputs": [
        {
          "internalType": "uint256",
          "name": "",
          "type": "uint256"
        }
      ],
      "stateMutability": "view",
      "type": "function",
      "constant": true
    },
    {
      "inputs": [
        {
          "internalType": "bytes32",
          "name": "_proposalId",
          "type": "bytes32"
        },
        {
          "internalType": "address",
          "name": "_proposalAddr",
          "type": "address"
        },
        {
          "internalType": "bytes32",
          "name": "_operation",
          "type": "bytes32"
        },
        {
          "internalType": "address",
          "name": "_contractAddr",
          "type": "address"
        }
      ],
      "name": "createProposal",
      "outputs": [],
      "stateMutability": "nonpayable",
      "type": "function"
    },
    {
      "inputs": [
        {
          "internalType": "bytes32",
          "name": "_proposalId",
          "type": "bytes32"
        }
      ],
      "name": "accept",
      "outputs": [],
      "stateMutability": "nonpayable",
      "type": "function"
    },
    {
      "inputs": [
        {
          "internalType": "bytes32",
          "name": "_proposalId",
          "type": "bytes32"
        }
      ],
      "name": "reject",
      "outputs": [],
      "stateMutability": "nonpayable",
      "type": "function"
    },
    {
      "inputs": [],
      "name": "getAllProposalsId",
      "outputs": [
        {
          "internalType": "bytes32[]",
          "name": "",
          "type": "bytes32[]"
        }
      ],
      "stateMutability": "view",
      "type": "function",
      "constant": true
    },
    {
      "inputs": [
        {
          "internalType": "bytes32",
          "name": "index",
          "type": "bytes32"
        }
      ],
      "name": "getProposalById",
      "outputs": [
        {
          "internalType": "bytes32",
          "name": "",
          "type": "bytes32"
        },
        {
          "internalType": "address",
          "name": "",
          "type": "address"
        },
        {
          "internalType": "bytes32",
          "name": "",
          "type": "bytes32"
        },
        {
          "internalType": "address",
          "name": "",
          "type": "address"
        },
        {
          "internalType": "address[]",
          "name": "",
          "type": "address[]"
        },
        {
          "internalType": "address[]",
          "name": "",
          "type": "address[]"
        },
        {
          "internalType": "bool",
          "name": "",
          "type": "bool"
        }
      ],
      "stateMutability": "view",
      "type": "function",
      "constant": true
    }
  ],
  "bytecode": "0x60806040523480156200001157600080fd5b506040516200212138038062002121833981810160405260608110156200003757600080fd5b81019080805160405193929190846401000000008211156200005857600080fd5b838201915060208201858111156200006f57600080fd5b82518660208202830111640100000000821117156200008d57600080fd5b8083526020830192505050908051906020019060200280838360005b83811015620000c6578082015181840152602081019050620000a9565b50505050905001604052602001805190602001909291908051906020019092919050505060008090505b8351811015620001735760018060008684815181106200010c57fe5b602002602001015173ffffffffffffffffffffffffffffffffffffffff1673ffffffffffffffffffffffffffffffffffffffff16815260200190815260200160002060006101000a81548160ff0219169083151502179055508080600101915050620000f0565b50816005819055508060048190555060006003819055506001600660007f7365744d696e7465720000000000000000000000000000000000000000000000815260200190815260200160002060006101000a81548160ff0219169083151502179055506001600660007f73657441646d696e6973747261746f7200000000000000000000000000000000815260200190815260200160002060006101000a81548160ff0219169083151502179055506001600660007f7365745265736572766500000000000000000000000000000000000000000000815260200190815260200160002060006101000a81548160ff021916908315150217905550505050611ea080620002816000396000f3fe608060405234801561001057600080fd5b50600436106100b35760003560e01c8063a4d66daf11610071578063a4d66daf1461041b578063bb8c5e4914610439578063cabd734f14610457578063d506597514610485578063e4725ba1146104e1578063f438dcd81461050f576100b3565b8062811676146100b8578063109ded1e146101725780633cf0d138146102bc5780638989b14114610302578063938351b81461037a57806399a1d8db146103bc575b600080fd5b6100e4600480360360208110156100ce57600080fd5b810190808035906020019092919050505061052d565b604051808681526020018573ffffffffffffffffffffffffffffffffffffffff1673ffffffffffffffffffffffffffffffffffffffff1681526020018481526020018373ffffffffffffffffffffffffffffffffffffffff1673ffffffffffffffffffffffffffffffffffffffff168152602001821515151581526020019550505050505060405180910390f35b61019e6004803603602081101561018857600080fd5b81019080803590602001909291905050506105b0565b604051808881526020018773ffffffffffffffffffffffffffffffffffffffff1673ffffffffffffffffffffffffffffffffffffffff1681526020018681526020018573ffffffffffffffffffffffffffffffffffffffff1673ffffffffffffffffffffffffffffffffffffffff168152602001806020018060200184151515158152602001838103835286818151815260200191508051906020019060200280838360005b8381101561025f578082015181840152602081019050610244565b50505050905001838103825285818151815260200191508051906020019060200280838360005b838110156102a1578082015181840152602081019050610286565b50505050905001995050505050505050505060405180910390f35b6102e8600480360360208110156102d257600080fd5b810190808035906020019092919050505061081d565b604051808215151515815260200191505060405180910390f35b6103786004803603608081101561031857600080fd5b8101908080359060200190929190803573ffffffffffffffffffffffffffffffffffffffff16906020019092919080359060200190929190803573ffffffffffffffffffffffffffffffffffffffff16906020019092919050505061083d565b005b6103a66004803603602081101561039057600080fd5b8101908080359060200190929190505050610f0a565b6040518082815260200191505060405180910390f35b6103c4610f2b565b6040518080602001828103825283818151815260200191508051906020019060200280838360005b838110156104075780820151818401526020810190506103ec565b505050509050019250505060405180910390f35b610423610f83565b6040518082815260200191505060405180910390f35b610441610f89565b6040518082815260200191505060405180910390f35b6104836004803603602081101561046d57600080fd5b8101908080359060200190929190505050610f8f565b005b6104c76004803603602081101561049b57600080fd5b81019080803573ffffffffffffffffffffffffffffffffffffffff169060200190929190505050611337565b604051808215151515815260200191505060405180910390f35b61050d600480360360208110156104f757600080fd5b8101908080359060200190929190505050611357565b005b610517611d26565b6040518082815260200191505060405180910390f35b60026020528060005260406000206000915090508060000154908060010160009054906101000a900473ffffffffffffffffffffffffffffffffffffffff16908060020154908060030160009054906101000a900473ffffffffffffffffffffffffffffffffffffffff16908060060160009054906101000a900460ff16905085565b60008060008060608060006105c3611d2c565b600260008a81526020019081526020016000206040518060e0016040529081600082015481526020016001820160009054906101000a900473ffffffffffffffffffffffffffffffffffffffff1673ffffffffffffffffffffffffffffffffffffffff1673ffffffffffffffffffffffffffffffffffffffff168152602001600282015481526020016003820160009054906101000a900473ffffffffffffffffffffffffffffffffffffffff1673ffffffffffffffffffffffffffffffffffffffff1673ffffffffffffffffffffffffffffffffffffffff1681526020016004820180548060200260200160405190810160405280929190818152602001828054801561072657602002820191906000526020600020905b8160009054906101000a900473ffffffffffffffffffffffffffffffffffffffff1673ffffffffffffffffffffffffffffffffffffffff16815260200190600101908083116106dc575b50505050508152602001600582018054806020026020016040519081016040528092919081815260200182805480156107b457602002820191906000526020600020905b8160009054906101000a900473ffffffffffffffffffffffffffffffffffffffff1673ffffffffffffffffffffffffffffffffffffffff168152602001906001019080831161076a575b505050505081526020016006820160009054906101000a900460ff1615151515815250509050806000015181602001518260400151836060015184608001518560a001518660c00151829250819150975097509750975097509750975050919395979092949650565b60066020528060005260406000206000915054906101000a900460ff1681565b600160003373ffffffffffffffffffffffffffffffffffffffff1673ffffffffffffffffffffffffffffffffffffffff16815260200190815260200160002060009054906101000a900460ff166108fc576040517f08c379a00000000000000000000000000000000000000000000000000000000081526004018080602001828103825260028152602001807f303100000000000000000000000000000000000000000000000000000000000081525060200191505060405180910390fd5b60035460045411610975576040517f08c379a00000000000000000000000000000000000000000000000000000000081526004018080602001828103825260028152602001807f303400000000000000000000000000000000000000000000000000000000000081525060200191505060405180910390fd5b816006600082815260200190815260200160002060009054906101000a900460ff16610a09576040517f08c379a00000000000000000000000000000000000000000000000000000000081526004018080602001828103825260028152602001807f303600000000000000000000000000000000000000000000000000000000000081525060200191505060405180910390fd5b848060026000838152602001908152602001600020600001541415610a96576040517f08c379a00000000000000000000000000000000000000000000000000000000081526004018080602001828103825260028152602001807f303200000000000000000000000000000000000000000000000000000000000081525060200191505060405180910390fd5b6040518060e001604052808781526020018673ffffffffffffffffffffffffffffffffffffffff1681526020018581526020018473ffffffffffffffffffffffffffffffffffffffff16815260200160026000898152602001908152602001600020600401805480602002602001604051908101604052809291908181526020018280548015610b7b57602002820191906000526020600020905b8160009054906101000a900473ffffffffffffffffffffffffffffffffffffffff1673ffffffffffffffffffffffffffffffffffffffff1681526020019060010190808311610b31575b5050505050815260200160026000898152602001908152602001600020600501805480602002602001604051908101604052809291908181526020018280548015610c1b57602002820191906000526020600020905b8160009054906101000a900473ffffffffffffffffffffffffffffffffffffffff1673ffffffffffffffffffffffffffffffffffffffff1681526020019060010190808311610bd1575b5050505050815260200160001515815250600260008881526020019081526020016000206000820151816000015560208201518160010160006101000a81548173ffffffffffffffffffffffffffffffffffffffff021916908373ffffffffffffffffffffffffffffffffffffffff1602179055506040820151816002015560608201518160030160006101000a81548173ffffffffffffffffffffffffffffffffffffffff021916908373ffffffffffffffffffffffffffffffffffffffff1602179055506080820151816004019080519060200190610cfd929190611d9d565b5060a0820151816005019080519060200190610d1a929190611d9d565b5060c08201518160060160006101000a81548160ff02191690831515021790555090505060026000878152602001908152602001600020600401339080600181540180825580915050600190039060005260206000200160009091909190916101000a81548173ffffffffffffffffffffffffffffffffffffffff021916908373ffffffffffffffffffffffffffffffffffffffff16021790555060078690806001815401808255809150506001900390600052602060002001600090919091909150557f2b18c38a1441e5afa4d311828a757b2b4b7f47ad4d48b5e9b98d56c8344e9f5733604051808273ffffffffffffffffffffffffffffffffffffffff1673ffffffffffffffffffffffffffffffffffffffff16815260200191505060405180910390a17f2b18c38a1441e5afa4d311828a757b2b4b7f47ad4d48b5e9b98d56c8344e9f5760026000888152602001908152602001600020600401600081548110610e8457fe5b9060005260206000200160009054906101000a900473ffffffffffffffffffffffffffffffffffffffff16604051808273ffffffffffffffffffffffffffffffffffffffff1673ffffffffffffffffffffffffffffffffffffffff16815260200191505060405180910390a1600360008154809291906001019190505550505050505050565b60078181548110610f1757fe5b906000526020600020016000915090505481565b60606007805480602002602001604051908101604052809291908181526020018280548015610f7957602002820191906000526020600020905b815481526020019060010190808311610f65575b5050505050905090565b60055481565b60045481565b600160003373ffffffffffffffffffffffffffffffffffffffff1673ffffffffffffffffffffffffffffffffffffffff16815260200190815260200160002060009054906101000a900460ff1661104e576040517f08c379a00000000000000000000000000000000000000000000000000000000081526004018080602001828103825260028152602001807f303100000000000000000000000000000000000000000000000000000000000081525060200191505060405180910390fd5b80806002600083815260200190815260200160002060000154146110da576040517f08c379a00000000000000000000000000000000000000000000000000000000081526004018080602001828103825260028152602001807f303300000000000000000000000000000000000000000000000000000000000081525060200191505060405180910390fd5b816002600082815260200190815260200160002060060160009054906101000a900460ff1615611172576040517f08c379a00000000000000000000000000000000000000000000000000000000081526004018080602001828103825260028152602001807f303500000000000000000000000000000000000000000000000000000000000081525060200191505060405180910390fd5b60026000848152602001908152602001600020600501339080600181540180825580915050600190039060005260206000200160009091909190916101000a81548173ffffffffffffffffffffffffffffffffffffffff021916908373ffffffffffffffffffffffffffffffffffffffff16021790555060008090505b60026000858152602001908152602001600020600401805490508110156112ef573373ffffffffffffffffffffffffffffffffffffffff1660026000868152602001908152602001600020600401828154811061124857fe5b9060005260206000200160009054906101000a900473ffffffffffffffffffffffffffffffffffffffff1673ffffffffffffffffffffffffffffffffffffffff1614156112e2576002600085815260200190815260200160002060040181815481106112b057fe5b9060005260206000200160006101000a81549073ffffffffffffffffffffffffffffffffffffffff02191690556112ef565b80806001019150506111ef565b5060016002600085815260200190815260200160002060060160006101000a81548160ff02191690831515021790555060036000815480929190600190039190505550505050565b60016020528060005260406000206000915054906101000a900460ff1681565b600160003373ffffffffffffffffffffffffffffffffffffffff1673ffffffffffffffffffffffffffffffffffffffff16815260200190815260200160002060009054906101000a900460ff16611416576040517f08c379a00000000000000000000000000000000000000000000000000000000081526004018080602001828103825260028152602001807f303100000000000000000000000000000000000000000000000000000000000081525060200191505060405180910390fd5b80806002600083815260200190815260200160002060000154146114a2576040517f08c379a00000000000000000000000000000000000000000000000000000000081526004018080602001828103825260028152602001807f303300000000000000000000000000000000000000000000000000000000000081525060200191505060405180910390fd5b816002600082815260200190815260200160002060060160009054906101000a900460ff161561153a576040517f08c379a00000000000000000000000000000000000000000000000000000000081526004018080602001828103825260028152602001807f303500000000000000000000000000000000000000000000000000000000000081525060200191505060405180910390fd5b82600080905060008090505b6002600084815260200190815260200160002060040180549050811015611711577f360b7664a6c112ec8eb148a9865f73494923c61cf7ba8f49efe95004da1d60976002600085815260200190815260200160002060040182815481106115a957fe5b9060005260206000200160009054906101000a900473ffffffffffffffffffffffffffffffffffffffff16604051808273ffffffffffffffffffffffffffffffffffffffff1673ffffffffffffffffffffffffffffffffffffffff16815260200191505060405180910390a17f360b7664a6c112ec8eb148a9865f73494923c61cf7ba8f49efe95004da1d609733604051808273ffffffffffffffffffffffffffffffffffffffff1673ffffffffffffffffffffffffffffffffffffffff16815260200191505060405180910390a13373ffffffffffffffffffffffffffffffffffffffff166002600085815260200190815260200160002060040182815481106116b057fe5b9060005260206000200160009054906101000a900473ffffffffffffffffffffffffffffffffffffffff1673ffffffffffffffffffffffffffffffffffffffff1614156117005760019150611711565b600091508080600101915050611546565b50600015158115151461178c576040517f08c379a00000000000000000000000000000000000000000000000000000000081526004018080602001828103825260028152602001807f303700000000000000000000000000000000000000000000000000000000000081525060200191505060405180910390fd5b60026000868152602001908152602001600020600401339080600181540180825580915050600190039060005260206000200160009091909190916101000a81548173ffffffffffffffffffffffffffffffffffffffff021916908373ffffffffffffffffffffffffffffffffffffffff1602179055507f2b18c38a1441e5afa4d311828a757b2b4b7f47ad4d48b5e9b98d56c8344e9f576002600087815260200190815260200160002060040160018154811061184657fe5b9060005260206000200160009054906101000a900473ffffffffffffffffffffffffffffffffffffffff16604051808273ffffffffffffffffffffffffffffffffffffffff1673ffffffffffffffffffffffffffffffffffffffff16815260200191505060405180910390a160055460026000878152602001908152602001600020600401805490501415611d1f576002600086815260200190815260200160002060030160009054906101000a900473ffffffffffffffffffffffffffffffffffffffff166000806101000a81548173ffffffffffffffffffffffffffffffffffffffff021916908373ffffffffffffffffffffffffffffffffffffffff1602179055507f7365744d696e746572000000000000000000000000000000000000000000000060026000878152602001908152602001600020600201541415611a7c576000809054906101000a900473ffffffffffffffffffffffffffffffffffffffff1673ffffffffffffffffffffffffffffffffffffffff1663fca3b5aa6002600088815260200190815260200160002060010160009054906101000a900473ffffffffffffffffffffffffffffffffffffffff166040518263ffffffff1660e01b8152600401808273ffffffffffffffffffffffffffffffffffffffff1673ffffffffffffffffffffffffffffffffffffffff168152602001915050600060405180830381600087803b158015611a5f57600080fd5b505af1158015611a73573d6000803e3d6000fd5b50505050611cdc565b7f73657441646d696e6973747261746f720000000000000000000000000000000060026000878152602001908152602001600020600201541415611bad576000809054906101000a900473ffffffffffffffffffffffffffffffffffffffff1673ffffffffffffffffffffffffffffffffffffffff1663df8089ef6002600088815260200190815260200160002060010160009054906101000a900473ffffffffffffffffffffffffffffffffffffffff166040518263ffffffff1660e01b8152600401808273ffffffffffffffffffffffffffffffffffffffff1673ffffffffffffffffffffffffffffffffffffffff168152602001915050600060405180830381600087803b158015611b9057600080fd5b505af1158015611ba4573d6000803e3d6000fd5b50505050611cdb565b7f736574526573657276650000000000000000000000000000000000000000000060026000878152602001908152602001600020600201541415611cda576000809054906101000a900473ffffffffffffffffffffffffffffffffffffffff1673ffffffffffffffffffffffffffffffffffffffff16639cecc80a6002600088815260200190815260200160002060010160009054906101000a900473ffffffffffffffffffffffffffffffffffffffff166040518263ffffffff1660e01b8152600401808273ffffffffffffffffffffffffffffffffffffffff1673ffffffffffffffffffffffffffffffffffffffff168152602001915050600060405180830381600087803b158015611cc157600080fd5b505af1158015611cd5573d6000803e3d6000fd5b505050505b5b5b60016002600087815260200190815260200160002060060160006101000a81548160ff021916908315150217905550600360008154809291906001900391905055505b5050505050565b60035481565b6040518060e0016040528060008019168152602001600073ffffffffffffffffffffffffffffffffffffffff16815260200160008019168152602001600073ffffffffffffffffffffffffffffffffffffffff16815260200160608152602001606081526020016000151581525090565b828054828255906000526020600020908101928215611e16579160200282015b82811115611e155782518260006101000a81548173ffffffffffffffffffffffffffffffffffffffff021916908373ffffffffffffffffffffffffffffffffffffffff16021790555091602001919060010190611dbd565b5b509050611e239190611e27565b5090565b611e6791905b80821115611e6357600081816101000a81549073ffffffffffffffffffffffffffffffffffffffff021916905550600101611e2d565b5090565b9056fea2646970667358221220bd041c4afa261e1913718225fb9bd8b86cee980d08fbce4bf183e65c6147149964736f6c63430006000033",
  "source": "// SPDX-License-Identifier: MIt\r\npragma solidity >=0.4.22 <0.8.0;\r\nimport \"./InterfaceStablecoin.sol\";\r\n\r\ncontract OwnerMultisig {\r\n    InterfaceStablecoin lc;\r\n    struct proposal {\r\n        bytes32 proposalId;\r\n        address _proposalAddr;\r\n        bytes32 operation;\r\n        address contractAddr;\r\n        address[] approvals;\r\n        address[] rejects;\r\n        bool status;\r\n    }\r\n\r\n    mapping(address => bool) public Signers;\r\n    mapping(bytes32 => proposal) public Proposals;\r\n    uint256 public openProposals;\r\n    uint256 public restriction;\r\n    uint256 public limit;\r\n    mapping(bytes32 => bool) public AuthOps;\r\n    event testSigners(address _from);\r\n    event signedBy(address signer);\r\n    bytes32[] public allProposals;\r\n\r\n    constructor(\r\n        address[] memory _signers,\r\n        uint256 _limit,\r\n        uint256 _restriction\r\n    ) public {\r\n        for (uint256 i = 0; i < _signers.length; i++) {\r\n            Signers[_signers[i]] = true;\r\n        }\r\n        limit = _limit;\r\n        restriction = _restriction;\r\n        openProposals = 0;\r\n        AuthOps[\"setMinter\"] = true;\r\n        AuthOps[\"setAdministrator\"] = true;\r\n        AuthOps[\"setReserve\"] = true;\r\n    }\r\n\r\n    /*  Verification utils  */\r\n\r\n    modifier checkSigner() {\r\n        require(Signers[msg.sender], \"01\");\r\n        _;\r\n    }\r\n\r\n    modifier checkNewProposal(bytes32 _proposalId) {\r\n        require(Proposals[_proposalId].proposalId != _proposalId, \"02\");\r\n        _;\r\n    }\r\n\r\n    modifier checkProposal(bytes32 _proposalId) {\r\n        require(Proposals[_proposalId].proposalId == _proposalId, \"03\");\r\n        _;\r\n    }\r\n\r\n    modifier checkRestriction() {\r\n        require(restriction > openProposals, \"04\");\r\n        _;\r\n    }\r\n\r\n    modifier checkOpen(bytes32 _proposalId) {\r\n        require(!Proposals[_proposalId].status, \"05\");\r\n        _;\r\n    }\r\n\r\n    modifier checkOperation(bytes32 _operation) {\r\n        require(AuthOps[_operation], \"06\");\r\n        _;\r\n    }\r\n\r\n    modifier checkAlreadyAccept(bytes32 _proposalId) {\r\n        bool contains = false;\r\n\r\n        for (uint256 i = 0; i < Proposals[_proposalId].approvals.length; i++) {\r\n            emit testSigners(Proposals[_proposalId].approvals[i]);\r\n            emit testSigners(msg.sender);\r\n            if (Proposals[_proposalId].approvals[i] == msg.sender) {\r\n                contains = true;\r\n                break;\r\n            }\r\n            contains = false;\r\n        }\r\n        require(contains == false, \"07\");\r\n        _;\r\n    }\r\n\r\n    /*     Main entrypoints     */\r\n\r\n    function createProposal(\r\n        bytes32 _proposalId,\r\n        address _proposalAddr,\r\n        bytes32 _operation,\r\n        address _contractAddr\r\n    )\r\n        public\r\n        checkSigner()\r\n        checkRestriction()\r\n        checkOperation(_operation)\r\n        checkNewProposal(_proposalId)\r\n    {\r\n        Proposals[_proposalId] = proposal(\r\n            _proposalId,\r\n            _proposalAddr,\r\n            _operation,\r\n            _contractAddr,\r\n            Proposals[_proposalId].approvals,\r\n            Proposals[_proposalId].rejects,\r\n            false\r\n        );\r\n        Proposals[_proposalId].approvals.push(msg.sender);\r\n        allProposals.push(_proposalId);\r\n        emit signedBy(msg.sender);\r\n        emit signedBy(Proposals[_proposalId].approvals[0]);\r\n        openProposals++;\r\n    }\r\n\r\n    function accept(bytes32 _proposalId)\r\n        public\r\n        checkSigner()\r\n        checkProposal(_proposalId)\r\n        checkOpen(_proposalId)\r\n        checkAlreadyAccept(_proposalId)\r\n    {\r\n        Proposals[_proposalId].approvals.push(msg.sender);\r\n        emit signedBy(Proposals[_proposalId].approvals[1]);\r\n        if (Proposals[_proposalId].approvals.length == limit) {\r\n            lc = InterfaceStablecoin(Proposals[_proposalId].contractAddr);\r\n            if (Proposals[_proposalId].operation == \"setMinter\") {\r\n                lc.setMinter(Proposals[_proposalId]._proposalAddr);\r\n            } else if (Proposals[_proposalId].operation == \"setAdministrator\") {\r\n                lc.setAdministrator(Proposals[_proposalId]._proposalAddr);\r\n            } else if (Proposals[_proposalId].operation == \"setReserve\") {\r\n                lc.setReserve(Proposals[_proposalId]._proposalAddr);\r\n            }\r\n            Proposals[_proposalId].status = true;\r\n            openProposals--;\r\n        }\r\n    }\r\n\r\n    function reject(bytes32 _proposalId)\r\n        public\r\n        checkSigner()\r\n        checkProposal(_proposalId)\r\n        checkOpen(_proposalId)\r\n    {\r\n        Proposals[_proposalId].rejects.push(msg.sender);\r\n        for (uint256 i = 0; i < Proposals[_proposalId].approvals.length; i++) {\r\n            if (Proposals[_proposalId].approvals[i] == msg.sender) {\r\n                delete Proposals[_proposalId].approvals[i];\r\n                break;\r\n            }\r\n        }\r\n        Proposals[_proposalId].status = true;\r\n        openProposals--;\r\n    }\r\n\r\n    function getAllProposalsId() public view returns (bytes32[] memory) {\r\n        return allProposals;\r\n    }\r\n\r\n    function getProposalById(bytes32 index)\r\n        public\r\n        view\r\n        returns (\r\n            bytes32,\r\n            address,\r\n            bytes32,\r\n            address,\r\n            address[] memory,\r\n            address[] memory,\r\n            bool\r\n        )\r\n    {\r\n        proposal memory p = Proposals[index];\r\n        return (\r\n            p.proposalId,\r\n            p._proposalAddr,\r\n            p.operation,\r\n            p.contractAddr,\r\n            p.approvals,\r\n            p.rejects,\r\n            p.status\r\n        );\r\n    }\r\n}\r\n",
  "sourcePath": "C:/Users/Alexandre/Desktop/Cours/PI2_A5/Contrats/eth-stable-coin/stablecoin/contracts/OwnerMultiSig.sol",
  "compiler": {
    "name": "solc",
    "version": "0.6.0+commit.26b70077.Emscripten.clang"
  },
  "schemaVersion": "3.3.1",
  "updatedAt": "2020-12-21T17:45:57.947Z",
  "networkType": "ethereum",
  "devdoc": {
    "methods": {}
  },
  "userdoc": {
    "methods": {}
  }
}