{
  "contractName": "Stablecoin",
  "abi": [
    {
      "inputs": [
        {
          "internalType": "address",
          "name": "_administrator",
          "type": "address"
        },
        {
          "internalType": "address",
          "name": "_minter",
          "type": "address"
        },
        {
          "internalType": "address",
          "name": "_owner",
          "type": "address"
        }
      ],
      "stateMutability": "nonpayable",
      "type": "constructor"
    },
    {
      "anonymous": false,
      "inputs": [
        {
          "indexed": false,
          "internalType": "address",
          "name": "_address",
          "type": "address"
        }
      ],
      "name": "SetAdministrator",
      "type": "event"
    },
    {
      "anonymous": false,
      "inputs": [
        {
          "indexed": false,
          "internalType": "address",
          "name": "_address",
          "type": "address"
        },
        {
          "indexed": false,
          "internalType": "bool",
          "name": "_bool",
          "type": "bool"
        }
      ],
      "name": "SetLock",
      "type": "event"
    },
    {
      "anonymous": false,
      "inputs": [
        {
          "indexed": false,
          "internalType": "address",
          "name": "_address",
          "type": "address"
        }
      ],
      "name": "SetMinter",
      "type": "event"
    },
    {
      "anonymous": false,
      "inputs": [
        {
          "indexed": false,
          "internalType": "bool",
          "name": "_bool",
          "type": "bool"
        }
      ],
      "name": "SetPause",
      "type": "event"
    },
    {
      "anonymous": false,
      "inputs": [
        {
          "indexed": false,
          "internalType": "address",
          "name": "_address",
          "type": "address"
        }
      ],
      "name": "SetReserve",
      "type": "event"
    },
    {
      "anonymous": false,
      "inputs": [
        {
          "indexed": false,
          "internalType": "address",
          "name": "_address",
          "type": "address"
        },
        {
          "indexed": false,
          "internalType": "bool",
          "name": "_bool",
          "type": "bool"
        }
      ],
      "name": "SetWhitelist",
      "type": "event"
    },
    {
      "anonymous": false,
      "inputs": [
        {
          "indexed": false,
          "internalType": "address",
          "name": "_from",
          "type": "address"
        },
        {
          "indexed": false,
          "internalType": "address",
          "name": "_to",
          "type": "address"
        },
        {
          "indexed": false,
          "internalType": "uint256",
          "name": "_amount",
          "type": "uint256"
        }
      ],
      "name": "Transfer",
      "type": "event"
    },
    {
      "inputs": [
        {
          "internalType": "address",
          "name": "",
          "type": "address"
        }
      ],
      "name": "balances",
      "outputs": [
        {
          "internalType": "uint256",
          "name": "balance",
          "type": "uint256"
        },
        {
          "internalType": "bool",
          "name": "whiteListed",
          "type": "bool"
        },
        {
          "internalType": "bool",
          "name": "lock",
          "type": "bool"
        }
      ],
      "stateMutability": "view",
      "type": "function",
      "constant": true
    },
    {
      "inputs": [],
      "name": "circulatingSupply",
      "outputs": [
        {
          "internalType": "uint256",
          "name": "",
          "type": "uint256"
        }
      ],
      "stateMutability": "view",
      "type": "function",
      "constant": true
    },
    {
      "inputs": [],
      "name": "factor",
      "outputs": [
        {
          "internalType": "uint32",
          "name": "",
          "type": "uint32"
        }
      ],
      "stateMutability": "view",
      "type": "function",
      "constant": true
    },
    {
      "inputs": [],
      "name": "pause",
      "outputs": [
        {
          "internalType": "bool",
          "name": "",
          "type": "bool"
        }
      ],
      "stateMutability": "view",
      "type": "function",
      "constant": true
    },
    {
      "inputs": [],
      "name": "reserve_address",
      "outputs": [
        {
          "internalType": "address",
          "name": "",
          "type": "address"
        }
      ],
      "stateMutability": "view",
      "type": "function",
      "constant": true
    },
    {
      "inputs": [],
      "name": "sc_administrator",
      "outputs": [
        {
          "internalType": "address",
          "name": "",
          "type": "address"
        }
      ],
      "stateMutability": "view",
      "type": "function",
      "constant": true
    },
    {
      "inputs": [],
      "name": "sc_minter",
      "outputs": [
        {
          "internalType": "address",
          "name": "",
          "type": "address"
        }
      ],
      "stateMutability": "view",
      "type": "function",
      "constant": true
    },
    {
      "inputs": [],
      "name": "sc_owner",
      "outputs": [
        {
          "internalType": "address",
          "name": "",
          "type": "address"
        }
      ],
      "stateMutability": "view",
      "type": "function",
      "constant": true
    },
    {
      "inputs": [],
      "name": "ticker",
      "outputs": [
        {
          "internalType": "string",
          "name": "",
          "type": "string"
        }
      ],
      "stateMutability": "view",
      "type": "function",
      "constant": true
    },
    {
      "inputs": [],
      "name": "totalSupply",
      "outputs": [
        {
          "internalType": "uint256",
          "name": "",
          "type": "uint256"
        }
      ],
      "stateMutability": "view",
      "type": "function",
      "constant": true
    },
    {
      "inputs": [
        {
          "internalType": "address",
          "name": "_newAdministrator",
          "type": "address"
        }
      ],
      "name": "setAdministrator",
      "outputs": [],
      "stateMutability": "nonpayable",
      "type": "function"
    },
    {
      "inputs": [
        {
          "internalType": "address",
          "name": "_newMinter",
          "type": "address"
        }
      ],
      "name": "setMinter",
      "outputs": [],
      "stateMutability": "nonpayable",
      "type": "function"
    },
    {
      "inputs": [
        {
          "internalType": "address",
          "name": "_newReserve",
          "type": "address"
        }
      ],
      "name": "setReserve",
      "outputs": [],
      "stateMutability": "nonpayable",
      "type": "function"
    },
    {
      "inputs": [
        {
          "internalType": "bool",
          "name": "_pause",
          "type": "bool"
        }
      ],
      "name": "setPause",
      "outputs": [],
      "stateMutability": "nonpayable",
      "type": "function"
    },
    {
      "inputs": [
        {
          "internalType": "address",
          "name": "_address",
          "type": "address"
        },
        {
          "internalType": "bool",
          "name": "_lock",
          "type": "bool"
        }
      ],
      "name": "setLock",
      "outputs": [],
      "stateMutability": "nonpayable",
      "type": "function"
    },
    {
      "inputs": [
        {
          "internalType": "address",
          "name": "_address",
          "type": "address"
        },
        {
          "internalType": "bool",
          "name": "_whiteListed",
          "type": "bool"
        }
      ],
      "name": "setWhitelist",
      "outputs": [],
      "stateMutability": "nonpayable",
      "type": "function"
    },
    {
      "inputs": [
        {
          "internalType": "uint256",
          "name": "_amount",
          "type": "uint256"
        },
        {
          "internalType": "address",
          "name": "_from",
          "type": "address"
        },
        {
          "internalType": "address",
          "name": "_to",
          "type": "address"
        }
      ],
      "name": "transfer",
      "outputs": [],
      "stateMutability": "nonpayable",
      "type": "function"
    },
    {
      "inputs": [
        {
          "internalType": "uint256",
          "name": "_amount",
          "type": "uint256"
        }
      ],
      "name": "mint",
      "outputs": [],
      "stateMutability": "nonpayable",
      "type": "function"
    },
    {
      "inputs": [
        {
          "internalType": "uint256",
          "name": "_amount",
          "type": "uint256"
        }
      ],
      "name": "burn",
      "outputs": [],
      "stateMutability": "nonpayable",
      "type": "function"
    }
  ],
  "bytecode": "0x60806040523480156200001157600080fd5b506040516200209638038062002096833981810160405260608110156200003757600080fd5b81019080805190602001909291908051906020019092919080519060200190929190505050806000806101000a81548173ffffffffffffffffffffffffffffffffffffffff021916908373ffffffffffffffffffffffffffffffffffffffff16021790555082600160006101000a81548173ffffffffffffffffffffffffffffffffffffffff021916908373ffffffffffffffffffffffffffffffffffffffff16021790555081600260006101000a81548173ffffffffffffffffffffffffffffffffffffffff021916908373ffffffffffffffffffffffffffffffffffffffff1602179055506000600560006101000a81548160ff0219169083151502179055506000600681905550633b9aca006007819055506040518060400160405280600381526020017f53434500000000000000000000000000000000000000000000000000000000008152506009908051906020019062000199929190620002f2565b506002600860006101000a81548163ffffffff021916908363ffffffff160217905550600754600460008060009054906101000a900473ffffffffffffffffffffffffffffffffffffffff1673ffffffffffffffffffffffffffffffffffffffff1673ffffffffffffffffffffffffffffffffffffffff168152602001908152602001600020600001819055507fddf252ad1be2c89b69c2b068fc378daa952ba7f163c4a11628f55a4df523b3ef60008060009054906101000a900473ffffffffffffffffffffffffffffffffffffffff16600754604051808473ffffffffffffffffffffffffffffffffffffffff1673ffffffffffffffffffffffffffffffffffffffff1681526020018373ffffffffffffffffffffffffffffffffffffffff1673ffffffffffffffffffffffffffffffffffffffff168152602001828152602001935050505060405180910390a1505050620003a1565b828054600181600116156101000203166002900490600052602060002090601f016020900481019282601f106200033557805160ff191683800117855562000366565b8280016001018555821562000366579182015b828111156200036557825182559160200191906001019062000348565b5b50905062000375919062000379565b5090565b6200039e91905b808211156200039a57600081600090555060010162000380565b5090565b90565b611ce580620003b16000396000f3fe608060405234801561001057600080fd5b50600436106101215760003560e01c80639cecc80a116100ad578063ccb570e311610071578063ccb570e3146104a3578063dafbbb4814610511578063df8089ef1461055b578063e18efa281461059f578063fca3b5aa146105e957610121565b80639cecc80a14610367578063a0712d68146103ab578063b03c4b33146103d9578063bb155f0414610429578063bedb86fb1461047357610121565b806354f703f8116100f457806354f703f8146102305780638456cb591461025a5780638ba47bdd1461027c57806391e7c4c4146102ff5780639358928b1461034957610121565b806318160ddd1461012657806327e235e31461014457806342966c68146101b257806353d6fd59146101e0575b600080fd5b61012e61062d565b6040518082815260200191505060405180910390f35b6101866004803603602081101561015a57600080fd5b81019080803573ffffffffffffffffffffffffffffffffffffffff169060200190929190505050610633565b604051808481526020018315151515815260200182151515158152602001935050505060405180910390f35b6101de600480360360208110156101c857600080fd5b8101908080359060200190929190505050610677565b005b61022e600480360360408110156101f657600080fd5b81019080803573ffffffffffffffffffffffffffffffffffffffff16906020019092919080351515906020019092919050505061095d565b005b610238610b90565b604051808263ffffffff1663ffffffff16815260200191505060405180910390f35b610262610ba6565b604051808215151515815260200191505060405180910390f35b610284610bb9565b6040518080602001828103825283818151815260200191508051906020019080838360005b838110156102c45780820151818401526020810190506102a9565b50505050905090810190601f1680156102f15780820380516001836020036101000a031916815260200191505b509250505060405180910390f35b610307610c57565b604051808273ffffffffffffffffffffffffffffffffffffffff1673ffffffffffffffffffffffffffffffffffffffff16815260200191505060405180910390f35b610351610c7d565b6040518082815260200191505060405180910390f35b6103a96004803603602081101561037d57600080fd5b81019080803573ffffffffffffffffffffffffffffffffffffffff169060200190929190505050610c83565b005b6103d7600480360360208110156103c157600080fd5b8101908080359060200190929190505050610dec565b005b610427600480360360408110156103ef57600080fd5b81019080803573ffffffffffffffffffffffffffffffffffffffff169060200190929190803515159060200190929190505050610ff6565b005b610431611186565b604051808273ffffffffffffffffffffffffffffffffffffffff1673ffffffffffffffffffffffffffffffffffffffff16815260200191505060405180910390f35b6104a16004803603602081101561048957600080fd5b810190808035151590602001909291905050506111ac565b005b61050f600480360360608110156104b957600080fd5b8101908080359060200190929190803573ffffffffffffffffffffffffffffffffffffffff169060200190929190803573ffffffffffffffffffffffffffffffffffffffff1690602001909291905050506112c7565b005b610519611992565b604051808273ffffffffffffffffffffffffffffffffffffffff1673ffffffffffffffffffffffffffffffffffffffff16815260200191505060405180910390f35b61059d6004803603602081101561057157600080fd5b81019080803573ffffffffffffffffffffffffffffffffffffffff1690602001909291905050506119b8565b005b6105a7611b21565b604051808273ffffffffffffffffffffffffffffffffffffffff1673ffffffffffffffffffffffffffffffffffffffff16815260200191505060405180910390f35b61062b600480360360208110156105ff57600080fd5b81019080803573ffffffffffffffffffffffffffffffffffffffff169060200190929190505050611b46565b005b60075481565b60046020528060005260406000206000915090508060000154908060010160009054906101000a900460ff16908060010160019054906101000a900460ff16905083565b600260009054906101000a900473ffffffffffffffffffffffffffffffffffffffff1673ffffffffffffffffffffffffffffffffffffffff163373ffffffffffffffffffffffffffffffffffffffff161461073a576040517f08c379a00000000000000000000000000000000000000000000000000000000081526004018080602001828103825260028152602001807f303400000000000000000000000000000000000000000000000000000000000081525060200191505060405180910390fd5b808060046000600360009054906101000a900473ffffffffffffffffffffffffffffffffffffffff1673ffffffffffffffffffffffffffffffffffffffff1673ffffffffffffffffffffffffffffffffffffffff168152602001908152602001600020600001541015610815576040517f08c379a00000000000000000000000000000000000000000000000000000000081526004018080602001828103825260028152602001807f313100000000000000000000000000000000000000000000000000000000000081525060200191505060405180910390fd5b8160046000600360009054906101000a900473ffffffffffffffffffffffffffffffffffffffff1673ffffffffffffffffffffffffffffffffffffffff1673ffffffffffffffffffffffffffffffffffffffff16815260200190815260200160002060000160008282540392505081905550816006600082825403925050819055507fddf252ad1be2c89b69c2b068fc378daa952ba7f163c4a11628f55a4df523b3ef600360009054906101000a900473ffffffffffffffffffffffffffffffffffffffff16600084604051808473ffffffffffffffffffffffffffffffffffffffff1673ffffffffffffffffffffffffffffffffffffffff1681526020018373ffffffffffffffffffffffffffffffffffffffff1673ffffffffffffffffffffffffffffffffffffffff168152602001828152602001935050505060405180910390a15050565b600160009054906101000a900473ffffffffffffffffffffffffffffffffffffffff1673ffffffffffffffffffffffffffffffffffffffff163373ffffffffffffffffffffffffffffffffffffffff1614610a20576040517f08c379a00000000000000000000000000000000000000000000000000000000081526004018080602001828103825260028152602001807f303200000000000000000000000000000000000000000000000000000000000081525060200191505060405180910390fd5b80600460008473ffffffffffffffffffffffffffffffffffffffff1673ffffffffffffffffffffffffffffffffffffffff16815260200190815260200160002060010160006101000a81548160ff0219169083151502179055506000600460008473ffffffffffffffffffffffffffffffffffffffff1673ffffffffffffffffffffffffffffffffffffffff168152602001908152602001600020600001819055506000600460008473ffffffffffffffffffffffffffffffffffffffff1673ffffffffffffffffffffffffffffffffffffffff16815260200190815260200160002060010160016101000a81548160ff0219169083151502179055507ff6019ec0a78d156d249a1ec7579e2321f6ac7521d6e1d2eacf90ba4a184dcceb8282604051808373ffffffffffffffffffffffffffffffffffffffff1673ffffffffffffffffffffffffffffffffffffffff168152602001821515151581526020019250505060405180910390a15050565b600860009054906101000a900463ffffffff1681565b600560009054906101000a900460ff1681565b60098054600181600116156101000203166002900480601f016020809104026020016040519081016040528092919081815260200182805460018160011615610100020316600290048015610c4f5780601f10610c2457610100808354040283529160200191610c4f565b820191906000526020600020905b815481529060010190602001808311610c3257829003601f168201915b505050505081565b600360009054906101000a900473ffffffffffffffffffffffffffffffffffffffff1681565b60065481565b6000809054906101000a900473ffffffffffffffffffffffffffffffffffffffff1673ffffffffffffffffffffffffffffffffffffffff163373ffffffffffffffffffffffffffffffffffffffff1614610d45576040517f08c379a00000000000000000000000000000000000000000000000000000000081526004018080602001828103825260028152602001807f303300000000000000000000000000000000000000000000000000000000000081525060200191505060405180910390fd5b80600360006101000a81548173ffffffffffffffffffffffffffffffffffffffff021916908373ffffffffffffffffffffffffffffffffffffffff1602179055507f70b77aa3bf7367cd8c0674c8f80aa3829d046d2171e4e151fa63ab2e0d5d8e8381604051808273ffffffffffffffffffffffffffffffffffffffff1673ffffffffffffffffffffffffffffffffffffffff16815260200191505060405180910390a150565b600260009054906101000a900473ffffffffffffffffffffffffffffffffffffffff1673ffffffffffffffffffffffffffffffffffffffff163373ffffffffffffffffffffffffffffffffffffffff1614610eaf576040517f08c379a00000000000000000000000000000000000000000000000000000000081526004018080602001828103825260028152602001807f303400000000000000000000000000000000000000000000000000000000000081525060200191505060405180910390fd5b8060046000600360009054906101000a900473ffffffffffffffffffffffffffffffffffffffff1673ffffffffffffffffffffffffffffffffffffffff1673ffffffffffffffffffffffffffffffffffffffff16815260200190815260200160002060000160008282540192505081905550806006600082825401925050819055507fddf252ad1be2c89b69c2b068fc378daa952ba7f163c4a11628f55a4df523b3ef6000600360009054906101000a900473ffffffffffffffffffffffffffffffffffffffff1683604051808473ffffffffffffffffffffffffffffffffffffffff1673ffffffffffffffffffffffffffffffffffffffff1681526020018373ffffffffffffffffffffffffffffffffffffffff1673ffffffffffffffffffffffffffffffffffffffff168152602001828152602001935050505060405180910390a150565b600160009054906101000a900473ffffffffffffffffffffffffffffffffffffffff1673ffffffffffffffffffffffffffffffffffffffff163373ffffffffffffffffffffffffffffffffffffffff16146110b9576040517f08c379a00000000000000000000000000000000000000000000000000000000081526004018080602001828103825260028152602001807f303200000000000000000000000000000000000000000000000000000000000081525060200191505060405180910390fd5b80600460008473ffffffffffffffffffffffffffffffffffffffff1673ffffffffffffffffffffffffffffffffffffffff16815260200190815260200160002060010160016101000a81548160ff0219169083151502179055507fd3ae196360a2f86705798e66702921356ebc675aa4a25983489cc23110e605e98282604051808373ffffffffffffffffffffffffffffffffffffffff1673ffffffffffffffffffffffffffffffffffffffff168152602001821515151581526020019250505060405180910390a15050565b600160009054906101000a900473ffffffffffffffffffffffffffffffffffffffff1681565b600160009054906101000a900473ffffffffffffffffffffffffffffffffffffffff1673ffffffffffffffffffffffffffffffffffffffff163373ffffffffffffffffffffffffffffffffffffffff161461126f576040517f08c379a00000000000000000000000000000000000000000000000000000000081526004018080602001828103825260028152602001807f303200000000000000000000000000000000000000000000000000000000000081525060200191505060405180910390fd5b80600560006101000a81548160ff0219169083151502179055507f140eb9f8b591138e129e4caf389c92df4f0545b902523eee9e63153ecdb2026e81604051808215151515815260200191505060405180910390a150565b8282828173ffffffffffffffffffffffffffffffffffffffff163373ffffffffffffffffffffffffffffffffffffffff1614806113515750600160009054906101000a900473ffffffffffffffffffffffffffffffffffffffff1673ffffffffffffffffffffffffffffffffffffffff163373ffffffffffffffffffffffffffffffffffffffff16145b6113c3576040517f08c379a00000000000000000000000000000000000000000000000000000000081526004018080602001828103825260028152602001807f303900000000000000000000000000000000000000000000000000000000000081525060200191505060405180910390fd5b600360009054906101000a900473ffffffffffffffffffffffffffffffffffffffff1673ffffffffffffffffffffffffffffffffffffffff168273ffffffffffffffffffffffffffffffffffffffff1614156114dd57600360009054906101000a900473ffffffffffffffffffffffffffffffffffffffff1673ffffffffffffffffffffffffffffffffffffffff163373ffffffffffffffffffffffffffffffffffffffff16146114dc576040517f08c379a00000000000000000000000000000000000000000000000000000000081526004018080602001828103825260028152602001807f303800000000000000000000000000000000000000000000000000000000000081525060200191505060405180910390fd5b5b600360009054906101000a900473ffffffffffffffffffffffffffffffffffffffff1673ffffffffffffffffffffffffffffffffffffffff168173ffffffffffffffffffffffffffffffffffffffff16146115f557600460008273ffffffffffffffffffffffffffffffffffffffff1673ffffffffffffffffffffffffffffffffffffffff16815260200190815260200160002060010160009054906101000a900460ff166115f4576040517f08c379a00000000000000000000000000000000000000000000000000000000081526004018080602001828103825260028152602001807f303700000000000000000000000000000000000000000000000000000000000081525060200191505060405180910390fd5b5b600460008373ffffffffffffffffffffffffffffffffffffffff1673ffffffffffffffffffffffffffffffffffffffff16815260200190815260200160002060010160019054906101000a900460ff16156116b8576040517f08c379a00000000000000000000000000000000000000000000000000000000081526004018080602001828103825260028152602001807f303600000000000000000000000000000000000000000000000000000000000081525060200191505060405180910390fd5b82600460008473ffffffffffffffffffffffffffffffffffffffff1673ffffffffffffffffffffffffffffffffffffffff168152602001908152602001600020600001541015611770576040517f08c379a00000000000000000000000000000000000000000000000000000000081526004018080602001828103825260028152602001807f313000000000000000000000000000000000000000000000000000000000000081525060200191505060405180910390fd5b600560009054906101000a900460ff1615806117d95750600160009054906101000a900473ffffffffffffffffffffffffffffffffffffffff1673ffffffffffffffffffffffffffffffffffffffff163373ffffffffffffffffffffffffffffffffffffffff16145b61184b576040517f08c379a00000000000000000000000000000000000000000000000000000000081526004018080602001828103825260028152602001807f303100000000000000000000000000000000000000000000000000000000000081525060200191505060405180910390fd5b85600460008773ffffffffffffffffffffffffffffffffffffffff1673ffffffffffffffffffffffffffffffffffffffff1681526020019081526020016000206000016000828254039250508190555085600460008673ffffffffffffffffffffffffffffffffffffffff1673ffffffffffffffffffffffffffffffffffffffff168152602001908152602001600020600001600082825401925050819055507fddf252ad1be2c89b69c2b068fc378daa952ba7f163c4a11628f55a4df523b3ef858588604051808473ffffffffffffffffffffffffffffffffffffffff1673ffffffffffffffffffffffffffffffffffffffff1681526020018373ffffffffffffffffffffffffffffffffffffffff1673ffffffffffffffffffffffffffffffffffffffff168152602001828152602001935050505060405180910390a1505050505050565b600260009054906101000a900473ffffffffffffffffffffffffffffffffffffffff1681565b6000809054906101000a900473ffffffffffffffffffffffffffffffffffffffff1673ffffffffffffffffffffffffffffffffffffffff163373ffffffffffffffffffffffffffffffffffffffff1614611a7a576040517f08c379a00000000000000000000000000000000000000000000000000000000081526004018080602001828103825260028152602001807f303300000000000000000000000000000000000000000000000000000000000081525060200191505060405180910390fd5b80600160006101000a81548173ffffffffffffffffffffffffffffffffffffffff021916908373ffffffffffffffffffffffffffffffffffffffff1602179055507f2018ff159731aa9c7d202c921e898b8f537ca545b6bc697a209eeb02fda9cffb81604051808273ffffffffffffffffffffffffffffffffffffffff1673ffffffffffffffffffffffffffffffffffffffff16815260200191505060405180910390a150565b6000809054906101000a900473ffffffffffffffffffffffffffffffffffffffff1681565b6000809054906101000a900473ffffffffffffffffffffffffffffffffffffffff1673ffffffffffffffffffffffffffffffffffffffff163373ffffffffffffffffffffffffffffffffffffffff1614611c08576040517f08c379a00000000000000000000000000000000000000000000000000000000081526004018080602001828103825260028152602001807f303300000000000000000000000000000000000000000000000000000000000081525060200191505060405180910390fd5b80600260006101000a81548173ffffffffffffffffffffffffffffffffffffffff021916908373ffffffffffffffffffffffffffffffffffffffff1602179055507fcec52196e972044edde8689a1b608e459c5946b7f3e5c8cd3d6d8e126d422e1c81604051808273ffffffffffffffffffffffffffffffffffffffff1673ffffffffffffffffffffffffffffffffffffffff16815260200191505060405180910390a15056fea2646970667358221220277089f1d3a74910eeef23b89e1b2fcf3d747ec5b5373eb56f5f7e642548df6c64736f6c63430006000033",
  "source": "// SPDX-License-Identifier: MIt\r\npragma solidity >=0.4.22 <0.8.0;\r\n\r\ncontract Stablecoin {\r\n    address public sc_owner;\r\n    address public sc_administrator;\r\n    address public sc_minter;\r\n    address public reserve_address;\r\n\r\n    struct balance {\r\n        uint256 balance;\r\n        bool whiteListed;\r\n        bool lock;\r\n    }\r\n\r\n    mapping(address => balance) public balances;\r\n    bool public pause;\r\n    uint256 public circulatingSupply;\r\n    uint256 public totalSupply;\r\n    uint32 public factor;\r\n    string public ticker;\r\n\r\n    constructor(\r\n        address _administrator,\r\n        address _minter,\r\n        address _owner\r\n    ) public {\r\n        sc_owner = _owner;\r\n        sc_administrator = _administrator;\r\n        sc_minter = _minter;\r\n        pause = false;\r\n        circulatingSupply = 0;\r\n        totalSupply = 1000000000; //??\r\n        ticker = \"SCE\";\r\n        factor = 2;\r\n\r\n        balances[sc_owner].balance = totalSupply; //??\r\n        emit Transfer(address(0), sc_owner, totalSupply);\r\n    }\r\n\r\n    //Events\r\n    event Transfer(address _from, address _to, uint256 _amount);\r\n    event SetAdministrator(address _address);\r\n    event SetMinter(address _address);\r\n    event SetReserve(address _address);\r\n    event SetPause(bool _bool);\r\n    event SetLock(address _address, bool _bool);\r\n    event SetWhitelist(address _address, bool _bool);\r\n\r\n    //Modifiers\r\n    modifier onlyOwner() {\r\n        require(msg.sender == sc_owner, \"03\");\r\n        _;\r\n    }\r\n\r\n    modifier onlyAdministrator() {\r\n        require(msg.sender == sc_administrator, \"02\");\r\n        _;\r\n    }\r\n\r\n    modifier onlyMinter() {\r\n        require(msg.sender == sc_minter, \"04\");\r\n        _;\r\n    }\r\n\r\n    modifier checkTransferConditions(\r\n        uint256 _amount,\r\n        address _from,\r\n        address _to\r\n    ) {\r\n        require(msg.sender == _from || msg.sender == sc_administrator, \"09\");\r\n        if (_from == reserve_address) {\r\n            require(msg.sender == reserve_address, \"08\");\r\n        }\r\n        if (_to != reserve_address) {\r\n            require(balances[_to].whiteListed, \"07\");\r\n        }\r\n        require(!balances[_from].lock, \"06\");\r\n        require(balances[_from].balance >= _amount, \"10\");\r\n        require(!pause || msg.sender == sc_administrator, \"01\");\r\n        _;\r\n    }\r\n\r\n    modifier checkBurnConditions(uint256 _amount) {\r\n        require(balances[reserve_address].balance >= _amount, \"11\");\r\n        _;\r\n    }\r\n\r\n    //Only owner functionalities\r\n    function setAdministrator(address _newAdministrator) public onlyOwner() {\r\n        sc_administrator = _newAdministrator;\r\n        emit SetAdministrator(_newAdministrator);\r\n    }\r\n\r\n    function setMinter(address _newMinter) public onlyOwner() {\r\n        sc_minter = _newMinter;\r\n        emit SetMinter(_newMinter);\r\n    }\r\n\r\n    function setReserve(address _newReserve) public onlyOwner() {\r\n        reserve_address = _newReserve;\r\n        emit SetReserve(_newReserve);\r\n    }\r\n\r\n    //Only administrator functionalities\r\n    function setPause(bool _pause) public onlyAdministrator() {\r\n        pause = _pause;\r\n        emit SetPause(_pause);\r\n    }\r\n\r\n    function setLock(address _address, bool _lock) public onlyAdministrator() {\r\n        balances[_address].lock = _lock;\r\n        emit SetLock(_address, _lock);\r\n    }\r\n\r\n    function setWhitelist(address _address, bool _whiteListed)\r\n        public\r\n        onlyAdministrator()\r\n    {\r\n        balances[_address].whiteListed = _whiteListed;\r\n        balances[_address].balance = 0;\r\n        balances[_address].lock = false;\r\n        emit SetWhitelist(_address, _whiteListed);\r\n    }\r\n\r\n    //Transfer function\r\n    function transfer(\r\n        uint256 _amount,\r\n        address _from,\r\n        address _to\r\n    ) public checkTransferConditions(_amount, _from, _to) {\r\n        balances[_from].balance -= _amount;\r\n        balances[_to].balance += _amount;\r\n        emit Transfer(_from, _to, _amount);\r\n    }\r\n\r\n    //Only Minter functionalities\r\n    function mint(uint256 _amount) public onlyMinter() {\r\n        balances[reserve_address].balance += _amount;\r\n        circulatingSupply += _amount;\r\n        emit Transfer(address(0), reserve_address, _amount);\r\n    }\r\n\r\n    function burn(uint256 _amount)\r\n        public\r\n        onlyMinter()\r\n        checkBurnConditions(_amount)\r\n    {\r\n        balances[reserve_address].balance -= _amount;\r\n        circulatingSupply -= _amount;\r\n        emit Transfer(reserve_address, address(0), _amount);\r\n    }\r\n}\r\n",
  "sourcePath": "C:/Users/Alexandre/Desktop/Cours/PI2_A5/Contrats/eth-stable-coin/stablecoin/contracts/Stablecoin.sol",
  "compiler": {
    "name": "solc",
    "version": "0.6.0+commit.26b70077.Emscripten.clang"
  },
  "schemaVersion": "3.3.1",
  "updatedAt": "2020-12-21T17:50:12.967Z",
  "networkType": "ethereum",
  "devdoc": {
    "methods": {}
  },
  "userdoc": {
    "methods": {}
  }
}